{"abi":[{"type":"constructor","inputs":[{"name":"_usdc","type":"address","internalType":"address"},{"name":"_platformFeeRecipient","type":"address","internalType":"address"}],"stateMutability":"nonpayable"},{"type":"function","name":"DEFAULT_V3_FEE_TIER","inputs":[],"outputs":[{"name":"","type":"uint24","internalType":"uint24"}],"stateMutability":"view"},{"type":"function","name":"DEFAULT_V3_TICK_LOWER","inputs":[],"outputs":[{"name":"","type":"int24","internalType":"int24"}],"stateMutability":"view"},{"type":"function","name":"DEFAULT_V3_TICK_UPPER","inputs":[],"outputs":[{"name":"","type":"int24","internalType":"int24"}],"stateMutability":"view"},{"type":"function","name":"MAX_COMBINED_PERCENTAGE","inputs":[],"outputs":[{"name":"","type":"uint256","internalType":"uint256"}],"stateMutability":"view"},{"type":"function","name":"MIN_LIQUIDITY_PERCENTAGE","inputs":[],"outputs":[{"name":"","type":"uint256","internalType":"uint256"}],"stateMutability":"view"},{"type":"function","name":"PLATFORM_FEE","inputs":[],"outputs":[{"name":"","type":"uint256","internalType":"uint256"}],"stateMutability":"view"},{"type":"function","name":"TOKEN_DECIMALS","inputs":[],"outputs":[{"name":"","type":"uint8","internalType":"uint8"}],"stateMutability":"view"},{"type":"function","name":"UNISWAP_V2_FACTORY","inputs":[],"outputs":[{"name":"","type":"address","internalType":"address"}],"stateMutability":"view"},{"type":"function","name":"UNISWAP_V2_ROUTER","inputs":[],"outputs":[{"name":"","type":"address","internalType":"address"}],"stateMutability":"view"},{"type":"function","name":"UNISWAP_V3_FACTORY","inputs":[],"outputs":[{"name":"","type":"address","internalType":"address"}],"stateMutability":"view"},{"type":"function","name":"UNISWAP_V3_POSITION_MANAGER","inputs":[],"outputs":[{"name":"","type":"address","internalType":"address"}],"stateMutability":"view"},{"type":"function","name":"USDC","inputs":[],"outputs":[{"name":"","type":"address","internalType":"contract IERC20"}],"stateMutability":"view"},{"type":"function","name":"USDC_DECIMALS","inputs":[],"outputs":[{"name":"","type":"uint8","internalType":"uint8"}],"stateMutability":"view"},{"type":"function","name":"batchMerkleClaim","inputs":[{"name":"giveawayId","type":"uint256","internalType":"uint256"},{"name":"claimIndices","type":"uint256[]","internalType":"uint256[]"},{"name":"claimants","type":"address[]","internalType":"address[]"},{"name":"tokenAmounts","type":"uint256[]","internalType":"uint256[]"},{"name":"refundAmounts","type":"uint256[]","internalType":"uint256[]"},{"name":"merkleProofs","type":"bytes32[][]","internalType":"bytes32[][]"}],"outputs":[],"stateMutability":"nonpayable"},{"type":"function","name":"canClaimDevTokens","inputs":[{"name":"giveawayId","type":"uint256","internalType":"uint256"}],"outputs":[{"name":"canClaim","type":"bool","internalType":"bool"},{"name":"reason","type":"uint256","internalType":"uint256"}],"stateMutability":"view"},{"type":"function","name":"canClaimLiquidityTokens","inputs":[{"name":"giveawayId","type":"uint256","internalType":"uint256"}],"outputs":[{"name":"canClaim","type":"bool","internalType":"bool"},{"name":"reason","type":"uint256","internalType":"uint256"}],"stateMutability":"view"},{"type":"function","name":"cancelGiveaway","inputs":[{"name":"giveawayId","type":"uint256","internalType":"uint256"}],"outputs":[],"stateMutability":"nonpayable"},{"type":"function","name":"claimAndDeployLiquidity","inputs":[{"name":"giveawayId","type":"uint256","internalType":"uint256"},{"name":"usdcAmount","type":"uint256","internalType":"uint256"},{"name":"tokenAmount","type":"uint256","internalType":"uint256"}],"outputs":[],"stateMutability":"nonpayable"},{"type":"function","name":"claimDevTokens","inputs":[{"name":"giveawayId","type":"uint256","internalType":"uint256"}],"outputs":[],"stateMutability":"nonpayable"},{"type":"function","name":"claimLiquidityTokens","inputs":[{"name":"giveawayId","type":"uint256","internalType":"uint256"}],"outputs":[],"stateMutability":"nonpayable"},{"type":"function","name":"createGiveaway","inputs":[{"name":"tokenAddress","type":"address","internalType":"address"},{"name":"startTime","type":"uint256","internalType":"uint256"},{"name":"endTime","type":"uint256","internalType":"uint256"},{"name":"maxAllocation","type":"uint256","internalType":"uint256"},{"name":"totalTokensForSale","type":"uint256","internalType":"uint256"},{"name":"devPercentage","type":"uint256","internalType":"uint256"},{"name":"liquidityPercentage","type":"uint256","internalType":"uint256"}],"outputs":[{"name":"giveawayId","type":"uint256","internalType":"uint256"}],"stateMutability":"nonpayable"},{"type":"function","name":"deposit","inputs":[{"name":"giveawayId","type":"uint256","internalType":"uint256"},{"name":"amount","type":"uint256","internalType":"uint256"}],"outputs":[],"stateMutability":"nonpayable"},{"type":"function","name":"finalizeGiveaway","inputs":[{"name":"giveawayId","type":"uint256","internalType":"uint256"}],"outputs":[],"stateMutability":"nonpayable"},{"type":"function","name":"getAllocationBreakdown","inputs":[{"name":"giveawayId","type":"uint256","internalType":"uint256"}],"outputs":[{"name":"participantTokens","type":"uint256","internalType":"uint256"},{"name":"devTokens","type":"uint256","internalType":"uint256"},{"name":"liquidityTokens","type":"uint256","internalType":"uint256"},{"name":"participantPercentage","type":"uint256","internalType":"uint256"},{"name":"devPercentage","type":"uint256","internalType":"uint256"},{"name":"liquidityPercentage","type":"uint256","internalType":"uint256"}],"stateMutability":"view"},{"type":"function","name":"getAverageAllocation","inputs":[{"name":"giveawayId","type":"uint256","internalType":"uint256"}],"outputs":[{"name":"avgAllocation","type":"uint256","internalType":"uint256"}],"stateMutability":"view"},{"type":"function","name":"getConfigId","inputs":[{"name":"destinationChainId","type":"bytes32","internalType":"bytes32"},{"name":"userIdentifier","type":"bytes32","internalType":"bytes32"},{"name":"userDefinedData","type":"bytes","internalType":"bytes"}],"outputs":[{"name":"","type":"bytes32","internalType":"bytes32"}],"stateMutability":"view"},{"type":"function","name":"getDevTokenInfo","inputs":[{"name":"giveawayId","type":"uint256","internalType":"uint256"}],"outputs":[{"name":"devTokensAllocated","type":"uint256","internalType":"uint256"},{"name":"devTokensClaimed","type":"uint256","internalType":"uint256"},{"name":"devPercentage","type":"uint256","internalType":"uint256"}],"stateMutability":"view"},{"type":"function","name":"getGiveaway","inputs":[{"name":"giveawayId","type":"uint256","internalType":"uint256"}],"outputs":[{"name":"giveaway","type":"tuple","internalType":"struct Giveaway.GiveawayData","components":[{"name":"projectOwner","type":"address","internalType":"address"},{"name":"tokenAddress","type":"address","internalType":"address"},{"name":"startTime","type":"uint256","internalType":"uint256"},{"name":"endTime","type":"uint256","internalType":"uint256"},{"name":"maxAllocation","type":"uint256","internalType":"uint256"},{"name":"totalTokensForSale","type":"uint256","internalType":"uint256"},{"name":"totalDeposited","type":"uint256","internalType":"uint256"},{"name":"participantCount","type":"uint256","internalType":"uint256"},{"name":"finalized","type":"bool","internalType":"bool"},{"name":"cancelled","type":"bool","internalType":"bool"},{"name":"merkleRoot","type":"bytes32","internalType":"bytes32"},{"name":"merkleEnabled","type":"bool","internalType":"bool"},{"name":"devPercentage","type":"uint256","internalType":"uint256"},{"name":"devTokensClaimed","type":"uint256","internalType":"uint256"},{"name":"devTokensAllocated","type":"bool","internalType":"bool"},{"name":"liquidityPercentage","type":"uint256","internalType":"uint256"},{"name":"liquidityTokensClaimed","type":"uint256","internalType":"uint256"},{"name":"liquidityTokensAllocated","type":"bool","internalType":"bool"},{"name":"liquidityDeployed","type":"bool","internalType":"bool"}]}],"stateMutability":"view"},{"type":"function","name":"getGiveawayParticipants","inputs":[{"name":"giveawayId","type":"uint256","internalType":"uint256"}],"outputs":[{"name":"participantList","type":"address[]","internalType":"address[]"}],"stateMutability":"view"},{"type":"function","name":"getLiquidityTokenInfo","inputs":[{"name":"giveawayId","type":"uint256","internalType":"uint256"}],"outputs":[{"name":"liquidityTokensAllocated","type":"uint256","internalType":"uint256"},{"name":"liquidityTokensClaimed","type":"uint256","internalType":"uint256"},{"name":"liquidityPercentage","type":"uint256","internalType":"uint256"}],"stateMutability":"view"},{"type":"function","name":"getMerkleInfo","inputs":[{"name":"giveawayId","type":"uint256","internalType":"uint256"}],"outputs":[{"name":"merkleRoot","type":"bytes32","internalType":"bytes32"},{"name":"merkleEnabled","type":"bool","internalType":"bool"}],"stateMutability":"view"},{"type":"function","name":"getParticipant","inputs":[{"name":"giveawayId","type":"uint256","internalType":"uint256"},{"name":"participant","type":"address","internalType":"address"}],"outputs":[{"name":"p","type":"tuple","internalType":"struct Giveaway.Participant","components":[{"name":"depositAmount","type":"uint256","internalType":"uint256"},{"name":"userIdentifier","type":"uint256","internalType":"uint256"},{"name":"verified","type":"bool","internalType":"bool"}]}],"stateMutability":"view"},{"type":"function","name":"getTokenPrice","inputs":[{"name":"giveawayId","type":"uint256","internalType":"uint256"}],"outputs":[{"name":"tokenPrice","type":"uint256","internalType":"uint256"}],"stateMutability":"view"},{"type":"function","name":"getTokensForParticipants","inputs":[{"name":"giveawayId","type":"uint256","internalType":"uint256"}],"outputs":[{"name":"tokensForParticipants","type":"uint256","internalType":"uint256"}],"stateMutability":"view"},{"type":"function","name":"getVerification","inputs":[{"name":"wallet","type":"address","internalType":"address"}],"outputs":[{"name":"verification","type":"tuple","internalType":"struct Giveaway.PassportVerification","components":[{"name":"nullifier","type":"uint256","internalType":"uint256"},{"name":"userIdentifier","type":"uint256","internalType":"uint256"},{"name":"wallet","type":"address","internalType":"address"},{"name":"timestamp","type":"uint256","internalType":"uint256"}]}],"stateMutability":"view"},{"type":"function","name":"giveawayCounter","inputs":[],"outputs":[{"name":"","type":"uint256","internalType":"uint256"}],"stateMutability":"view"},{"type":"function","name":"giveawayParticipants","inputs":[{"name":"","type":"uint256","internalType":"uint256"},{"name":"","type":"uint256","internalType":"uint256"}],"outputs":[{"name":"","type":"address","internalType":"address"}],"stateMutability":"view"},{"type":"function","name":"giveaways","inputs":[{"name":"","type":"uint256","internalType":"uint256"}],"outputs":[{"name":"projectOwner","type":"address","internalType":"address"},{"name":"tokenAddress","type":"address","internalType":"address"},{"name":"startTime","type":"uint256","internalType":"uint256"},{"name":"endTime","type":"uint256","internalType":"uint256"},{"name":"maxAllocation","type":"uint256","internalType":"uint256"},{"name":"totalTokensForSale","type":"uint256","internalType":"uint256"},{"name":"totalDeposited","type":"uint256","internalType":"uint256"},{"name":"participantCount","type":"uint256","internalType":"uint256"},{"name":"finalized","type":"bool","internalType":"bool"},{"name":"cancelled","type":"bool","internalType":"bool"},{"name":"merkleRoot","type":"bytes32","internalType":"bytes32"},{"name":"merkleEnabled","type":"bool","internalType":"bool"},{"name":"devPercentage","type":"uint256","internalType":"uint256"},{"name":"devTokensClaimed","type":"uint256","internalType":"uint256"},{"name":"devTokensAllocated","type":"bool","internalType":"bool"},{"name":"liquidityPercentage","type":"uint256","internalType":"uint256"},{"name":"liquidityTokensClaimed","type":"uint256","internalType":"uint256"},{"name":"liquidityTokensAllocated","type":"bool","internalType":"bool"},{"name":"liquidityDeployed","type":"bool","internalType":"bool"}],"stateMutability":"view"},{"type":"function","name":"isMerkleClaimed","inputs":[{"name":"giveawayId","type":"uint256","internalType":"uint256"},{"name":"claimIndex","type":"uint256","internalType":"uint256"}],"outputs":[{"name":"claimed","type":"bool","internalType":"bool"}],"stateMutability":"view"},{"type":"function","name":"merkleClaim","inputs":[{"name":"giveawayId","type":"uint256","internalType":"uint256"},{"name":"claimIndex","type":"uint256","internalType":"uint256"},{"name":"participant","type":"address","internalType":"address"},{"name":"tokenAmount","type":"uint256","internalType":"uint256"},{"name":"refundAmount","type":"uint256","internalType":"uint256"},{"name":"merkleProof","type":"bytes32[]","internalType":"bytes32[]"}],"outputs":[],"stateMutability":"nonpayable"},{"type":"function","name":"merkleClaimed","inputs":[{"name":"","type":"uint256","internalType":"uint256"},{"name":"","type":"uint256","internalType":"uint256"}],"outputs":[{"name":"","type":"bool","internalType":"bool"}],"stateMutability":"view"},{"type":"function","name":"owner","inputs":[],"outputs":[{"name":"","type":"address","internalType":"address"}],"stateMutability":"view"},{"type":"function","name":"participants","inputs":[{"name":"","type":"uint256","internalType":"uint256"},{"name":"","type":"address","internalType":"address"}],"outputs":[{"name":"depositAmount","type":"uint256","internalType":"uint256"},{"name":"userIdentifier","type":"uint256","internalType":"uint256"},{"name":"verified","type":"bool","internalType":"bool"}],"stateMutability":"view"},{"type":"function","name":"platformFeeRecipient","inputs":[],"outputs":[{"name":"","type":"address","internalType":"address"}],"stateMutability":"view"},{"type":"function","name":"registerPassportVerification","inputs":[{"name":"nullifier","type":"uint256","internalType":"uint256"},{"name":"userIdentifier","type":"uint256","internalType":"uint256"}],"outputs":[],"stateMutability":"nonpayable"},{"type":"function","name":"renounceOwnership","inputs":[],"outputs":[],"stateMutability":"nonpayable"},{"type":"function","name":"setMerkleRoot","inputs":[{"name":"giveawayId","type":"uint256","internalType":"uint256"},{"name":"merkleRoot_","type":"bytes32","internalType":"bytes32"}],"outputs":[],"stateMutability":"nonpayable"},{"type":"function","name":"transferOwnership","inputs":[{"name":"newOwner","type":"address","internalType":"address"}],"outputs":[],"stateMutability":"nonpayable"},{"type":"function","name":"validateAllocationParameters","inputs":[{"name":"devPercentage","type":"uint256","internalType":"uint256"},{"name":"liquidityPercentage","type":"uint256","internalType":"uint256"}],"outputs":[{"name":"isValid","type":"bool","internalType":"bool"},{"name":"reason","type":"uint256","internalType":"uint256"}],"stateMutability":"pure"},{"type":"function","name":"verifications","inputs":[{"name":"","type":"address","internalType":"address"}],"outputs":[{"name":"nullifier","type":"uint256","internalType":"uint256"},{"name":"userIdentifier","type":"uint256","internalType":"uint256"},{"name":"wallet","type":"address","internalType":"address"},{"name":"timestamp","type":"uint256","internalType":"uint256"}],"stateMutability":"view"},{"type":"function","name":"walletVerified","inputs":[{"name":"","type":"address","internalType":"address"}],"outputs":[{"name":"","type":"bool","internalType":"bool"}],"stateMutability":"view"},{"type":"event","name":"Deposit","inputs":[{"name":"giveawayId","type":"uint256","indexed":true,"internalType":"uint256"},{"name":"participant","type":"address","indexed":true,"internalType":"address"},{"name":"amount","type":"uint256","indexed":false,"internalType":"uint256"},{"name":"verified","type":"bool","indexed":false,"internalType":"bool"}],"anonymous":false},{"type":"event","name":"DevTokensClaimed","inputs":[{"name":"giveawayId","type":"uint256","indexed":true,"internalType":"uint256"},{"name":"projectOwner","type":"address","indexed":true,"internalType":"address"},{"name":"tokenAmount","type":"uint256","indexed":false,"internalType":"uint256"}],"anonymous":false},{"type":"event","name":"GiveawayCancelled","inputs":[{"name":"giveawayId","type":"uint256","indexed":true,"internalType":"uint256"}],"anonymous":false},{"type":"event","name":"GiveawayCreated","inputs":[{"name":"giveawayId","type":"uint256","indexed":true,"internalType":"uint256"},{"name":"projectOwner","type":"address","indexed":true,"internalType":"address"},{"name":"tokenAddress","type":"address","indexed":true,"internalType":"address"},{"name":"startTime","type":"uint256","indexed":false,"internalType":"uint256"},{"name":"endTime","type":"uint256","indexed":false,"internalType":"uint256"},{"name":"maxAllocation","type":"uint256","indexed":false,"internalType":"uint256"},{"name":"totalTokensForSale","type":"uint256","indexed":false,"internalType":"uint256"},{"name":"devPercentage","type":"uint256","indexed":false,"internalType":"uint256"},{"name":"liquidityPercentage","type":"uint256","indexed":false,"internalType":"uint256"}],"anonymous":false},{"type":"event","name":"GiveawayFinalized","inputs":[{"name":"giveawayId","type":"uint256","indexed":true,"internalType":"uint256"},{"name":"totalDeposited","type":"uint256","indexed":false,"internalType":"uint256"},{"name":"participantCount","type":"uint256","indexed":false,"internalType":"uint256"},{"name":"devTokensAllocated","type":"uint256","indexed":false,"internalType":"uint256"},{"name":"liquidityTokensAllocated","type":"uint256","indexed":false,"internalType":"uint256"}],"anonymous":false},{"type":"event","name":"LiquidityDeployed","inputs":[{"name":"giveawayId","type":"uint256","indexed":true,"internalType":"uint256"},{"name":"poolAddress","type":"address","indexed":true,"internalType":"address"},{"name":"amountToken","type":"uint256","indexed":false,"internalType":"uint256"},{"name":"amountUSDC","type":"uint256","indexed":false,"internalType":"uint256"}],"anonymous":false},{"type":"event","name":"LiquidityTokensClaimed","inputs":[{"name":"giveawayId","type":"uint256","indexed":true,"internalType":"uint256"},{"name":"projectOwner","type":"address","indexed":true,"internalType":"address"},{"name":"tokenAmount","type":"uint256","indexed":false,"internalType":"uint256"}],"anonymous":false},{"type":"event","name":"MerkleRootSet","inputs":[{"name":"giveawayId","type":"uint256","indexed":true,"internalType":"uint256"},{"name":"merkleRoot","type":"bytes32","indexed":false,"internalType":"bytes32"}],"anonymous":false},{"type":"event","name":"MerkleTokensClaimed","inputs":[{"name":"giveawayId","type":"uint256","indexed":true,"internalType":"uint256"},{"name":"claimIndex","type":"uint256","indexed":true,"internalType":"uint256"},{"name":"participant","type":"address","indexed":true,"internalType":"address"},{"name":"tokenAmount","type":"uint256","indexed":false,"internalType":"uint256"},{"name":"refundAmount","type":"uint256","indexed":false,"internalType":"uint256"}],"anonymous":false},{"type":"event","name":"OwnershipTransferred","inputs":[{"name":"previousOwner","type":"address","indexed":true,"internalType":"address"},{"name":"newOwner","type":"address","indexed":true,"internalType":"address"}],"anonymous":false},{"type":"event","name":"PassportVerified","inputs":[{"name":"wallet","type":"address","indexed":true,"internalType":"address"},{"name":"userIdentifier","type":"uint256","indexed":true,"internalType":"uint256"},{"name":"nullifier","type":"uint256","indexed":false,"internalType":"uint256"},{"name":"timestamp","type":"uint256","indexed":false,"internalType":"uint256"}],"anonymous":false},{"type":"error","name":"AlreadyParticipated","inputs":[]},{"type":"error","name":"DevTokensAlreadyClaimed","inputs":[]},{"type":"error","name":"DevTokensNotAllocated","inputs":[]},{"type":"error","name":"GiveawayAlreadyCancelled","inputs":[]},{"type":"error","name":"GiveawayAlreadyFinalized","inputs":[]},{"type":"error","name":"GiveawayNotActive","inputs":[]},{"type":"error","name":"GiveawayNotFinalized","inputs":[]},{"type":"error","name":"GiveawayNotFound","inputs":[]},{"type":"error","name":"InsufficientDeposit","inputs":[]},{"type":"error","name":"InvalidAllocation","inputs":[]},{"type":"error","name":"InvalidAllocationSum","inputs":[]},{"type":"error","name":"InvalidDevPercentage","inputs":[]},{"type":"error","name":"InvalidLiquidityPercentage","inputs":[]},{"type":"error","name":"InvalidMerkleProof","inputs":[]},{"type":"error","name":"InvalidMerkleRoot","inputs":[]},{"type":"error","name":"InvalidNullifier","inputs":[]},{"type":"error","name":"InvalidTimeRange","inputs":[]},{"type":"error","name":"InvalidUserIdentifier","inputs":[]},{"type":"error","name":"LiquidityAlreadyDeployed","inputs":[]},{"type":"error","name":"LiquidityTokensAlreadyClaimed","inputs":[]},{"type":"error","name":"LiquidityTokensNotAllocated","inputs":[]},{"type":"error","name":"MerkleAlreadyClaimed","inputs":[]},{"type":"error","name":"MerkleAlreadySet","inputs":[]},{"type":"error","name":"MerkleNotEnabled","inputs":[]},{"type":"error","name":"NullifierAlreadyUsed","inputs":[]},{"type":"error","name":"OwnableInvalidOwner","inputs":[{"name":"owner","type":"address","internalType":"address"}]},{"type":"error","name":"OwnableUnauthorizedAccount","inputs":[{"name":"account","type":"address","internalType":"address"}]},{"type":"error","name":"ReentrancyGuardReentrantCall","inputs":[]},{"type":"error","name":"SafeERC20FailedOperation","inputs":[{"name":"token","type":"address","internalType":"address"}]},{"type":"error","name":"SybilDetected","inputs":[]},{"type":"error","name":"TransferFailed","inputs":[]},{"type":"error","name":"UnauthorizedAccess","inputs":[]},{"type":"error","name":"UserIdentifierAlreadyRegistered","inputs":[]},{"type":"error","name":"VerificationRequired","inputs":[]},{"type":"error","name":"WalletAlreadyVerified","inputs":[]}],"bytecode":{"object":"0x60c0346200014f57601f6200492d38819003918201601f19168301916001600160401b03831184841017620001535780849260409485528339810103126200014f576200005a6020620000528362000167565b920162000167565b60015f553315620001375760018054336001600160a01b031982168117909255604051936001600160a01b0392909183167f8be0079c531659141344cd1fd0a4f28419497f9722a3daafe3b4186f6b6457e05f80a31660805260a0526147b090816200017d8239608051818181610c460152818161154001528181611bb601528181611e2f015281816127fa015281816128520152818161287f015281816128b801528181612a5c01528181612c7001528181612f050152818161302d0152818161307e0152613683015260a05181818161088f015261305d0152f35b604051631e4fbdf760e01b81525f6004820152602490fd5b5f80fd5b634e487b7160e01b5f52604160045260245ffd5b51906001600160a01b03821682036200014f5756fe610120806040526004361015610013575f80fd5b5f610100525f3560e01c90816302e060c614613ea657508063080c98da14613e4357806312b861f9146139f757806316667728146138bc57806316f6d1481461389c578063186e68b21461387b57806318712c21146137505780631b7d20bd146132945780631c905f08146130e75780631d5e9609146130c657806320a37e15146125ef5780632ec3a60c146125c657806334fbc9a1146125a757806335f3ad7a146124f15780633e06df3d1461239757806347fdc5d2146123775780635b7f415c146123585780635d308fb8146122275780636f8cb96f146121055780636f9e2fc5146120b6578063715018a6146120475780637a85abd714611fff5780637fc9592d14611f4657806383889d5c14611f1f57806383e3839d14611e5357806389a3027114611e0c5780638aa7e67a14611cd35780638da5cb5b14611ca957806394cbab9d14611c77578063957cf0c51461191f57806399d8fae3146114595780639d72c2d4146118e1578063a548e5491461145e578063a82ed9ec14611459578063ada1b31914611375578063b38010b81461121a578063bb106e9c146111f3578063c1419def146111d4578063c457fb3714611004578063c917a13b14610fe4578063cabfb69314610fa1578063cb3bd80e14610eaa578063d7ba5d2f14610e7b578063e2bbb15814610a79578063e3c91b4214610a57578063e5d2418a146108b3578063eb13554f1461086c578063f1fdc50c1461063a578063f227d93e14610341578063f2fde38b1461028f5763f73e5aab14610253575f80fd5b3461028857610100518060031936011261028557602060405173229fd76da9062c1a10eb4193768e192bdea995728152f35b80fd5b6101005180fd5b34610288576020366003190112610288576102a8613f1a565b6102b0614031565b6001600160a01b0380911690811561030e576001548273ffffffffffffffffffffffffffffffffffffffff19821617600155167f8be0079c531659141344cd1fd0a4f28419497f9722a3daafe3b4186f6b6457e05f80a36101005180f35b60246040517f1e4fbdf7000000000000000000000000000000000000000000000000000000008152610100516004820152fd5b346102885760203660031901126102885760405161035e81613fba565b6101005181526101005160208201526101005160408201526101005160608201526101005160808201526101005160a08201526101005160c08201526101005160e08201526101005161010082015261010051610120820152610100516101408201526101005161016082015261010051610180820152610100516101a0820152610100516101c0820152610100516101e08201526101005161020082015261010051610220820152610240610100519101526002546004359081101561061057610100515260066020526102606040610100512061024060405161044281613fba565b60ff60106001600160a01b03855416948584526001600160a01b036001820154166020850152600281015460408501526003810154606085015260048101546080850152600581015460a0850152600681015460c0850152600781015460e0850152826008820154818116151561010087015260081c161515610120850152600981015461014085015282600a820154161515610160850152600b810154610180850152600c8101546101a085015282600d8201541615156101c0850152600e8101546101e0850152600f8101546102008501520154818116151561022084015260081c161515828201526040519283526001600160a01b03602082015116602084015260408101516040840152606081015160608401526080810151608084015260a081015160a084015260c081015160c084015260e081015160e08401526101008101511515610100840152610120810151151561012084015261014081015161014084015261016081015115156101608401526101808101516101808401526101a08101516101a08401526101c081015115156101c08401526101e08101516101e0840152610200810151610200840152610220810151151561022084015201511515610240820152f35b60046040517fd6629f91000000000000000000000000000000000000000000000000000000008152fd5b346102885761064836613f61565b90610651614075565b80156108425781156108185780610100515260206003815260406101005120546107ee578261010051526004815260ff6040610100512054166107c4573361010051526005815260ff60406101005120541661079a57816101005152600381528261010051816040822055526004815261010051604081209060ff199160018382541617905533905260058252600160406101005120918254161790556040516106fa81613ff3565b82815260038282018581526040830133815260608401914283523361010051526009865260406101005120945185555160018501556001600160a01b036002850191511673ffffffffffffffffffffffffffffffffffffffff198254161790555191015560405191825242908201527fa7b44c47947fd71b25ebed750fd60561eae70e315cf32379d9cddf8ba5e6f89160403392a3610100516001815580f35b60046040517ffbbbb589000000000000000000000000000000000000000000000000000000008152fd5b60046040517f29393238000000000000000000000000000000000000000000000000000000008152fd5b60046040517fcad2ae02000000000000000000000000000000000000000000000000000000008152fd5b60046040517ff0c426db000000000000000000000000000000000000000000000000000000008152fd5b60046040517f5d904cb2000000000000000000000000000000000000000000000000000000008152fd5b346102885761010051806003193601126102855760206040516001600160a01b037f0000000000000000000000000000000000000000000000000000000000000000168152f35b34610288576020366003190112610288576004356108cf614075565b6002548110156106105780610100515260066020526001600160a01b0390816040610100512054163303610a2d57806101005152600660205260ff60086040610100512001541615610a03578061010051526006602052604061010051209160ff601084015416156109d957600f83019283546109af577f162883d063a651b0a470c576f0bece23d32d6d8e322f2d21a8f981013e21fd08918161271061098160056020950154600e840154906141fd565b0480965561099a8683600184015416848454169061425a565b541693604051908152a3610100516001815580f35b60046040517f0f45d0ce000000000000000000000000000000000000000000000000000000008152fd5b60046040517f5c10a5ab000000000000000000000000000000000000000000000000000000008152fd5b60046040517ff9928a3b000000000000000000000000000000000000000000000000000000008152fd5b60046040517f344fd586000000000000000000000000000000000000000000000000000000008152fd5b34610288576101005180600319360112610285576020604051620d89e7198152f35b3461028857610a8736613f61565b610a8f614075565b60025482101561061057816101005152602091600683526040610100512092604051610aba81613fba565b60106001600160a01b039182875416815260019683888201541685830152600281015490604083019182526003810154926060810193845260048201546080820152600582015460a0820152600682015460c0820152600782015460e0820152610240600883015460ff96878281809416151561010087015260081c1615159485610120860152600981015461014086015282600a820154161515610160860152600b810154610180860152600c8101546101a086015282600d8201541615156101c0860152600e8101546101e0860152600f8101546102008601520154818116151561022085015260081c161515910152610e5157514210908115610e46575b50610e1c573361010051526005835260406101005120541615610df2578315610dc8578261010051526007825260406101005120335f52825260405f2054610d9e57336101005152600982528260406101005120604051610c1b81613ff3565b8154815260606003898401549384888501528660028201541660408501520154910152610c6a8630337f00000000000000000000000000000000000000000000000000000000000000006140dd565b610cc6604051610c7981613fd7565b8781528581019283526002604082018a815285610100515260078852610100519460408620335f52895260405f2093518455518b84015551151591019060ff801983541691151516179055565b5260088252610100516040812080549168010000000000000000831015610d87575081610cfa918880969594018155613f77565b819291549060031b9133831b921b19161790558261010051526006815260066040610100512001610d2c8582546140ae565b90558261010051526006815260076040610100512001610d4c81546140cf565b90556040519384528301527feb12850150989be404dd3e282269874f7944d367be91f8fae8ddd3c6e67405bc60403393a36101005190815580f35b634e487b7160e01b90526041600452602461010051fd5b60046040517f22ce1a07000000000000000000000000000000000000000000000000000000008152fd5b60046040517f0e1eddda000000000000000000000000000000000000000000000000000000008152fd5b60046040517fd2f96976000000000000000000000000000000000000000000000000000000008152fd5b60046040517f5d15a36e000000000000000000000000000000000000000000000000000000008152fd5b905051421187610bbb565b60046040517f6401e5b5000000000000000000000000000000000000000000000000000000008152fd5b3461028857610e92610e8c36613f61565b906146d9565b604080519215158352602083019190915290f35b0390f35b3461028857602036600319011261028857600435610ec6614075565b6002548110156106105780610100515260066020526001600160a01b03806040610100512054163303610a2d5781610100515260066020526040610100512090600882019182549260ff8416610f77576002820154421015610e1c57610100610f479461ff001916179055600582600183015416928254169101549161425a565b61010051907f349cc2947738b01c78cd3a0723458c7c56cca9bab2cf2a7f4c38affaea3e52488280a26001815580f35b60046040517f469cfe4c000000000000000000000000000000000000000000000000000000008152fd5b34610288576020366003190112610288576001600160a01b03610fc2613f1a565b1661010051526005602052602060ff6040610100512054166040519015158152f35b346102885761010051806003193601126102855760206040516107d08152f35b346102885760203660031901126102885760043560025481101561061057610100515260066020526040610100512060405161103f81613fba565b6001600160a01b03808354168252600183015416602082015260028201546040820152600382015460608201526111536004830154926080830193845261271061114c61114360058401549360a0870194855260068101549660c08101978852600782015460e082015260088201549060ff8281809416151561010084015260081c161515610120820152600983015461014082015281600a840154161515610160820152610240600b8401549283610180840152600c8501546101a084015280600d8601541615156101c08401526010600e86015495866101e0860152600f8101546102008601520154818116151561022085015260081c1615159101526140ae565b925192836141fd565b049061424d565b81519251909281106111a9575051670de0b6b3a76400009081810291818304149015171561118f5760209161118791614210565b604051908152f35b634e487b7160e01b61010051526011600452602461010051fd5b670de0b6b3a76400008082029250811591830414171561118f576020916111cf91614210565b611187565b3461028857610100518060031936011261028557602060405160068152f35b346102885760203660031901126102885760043560025481101561061057610e9290614369565b34610288576020366003190112610288576004356002548110156106105761010051526006602052604061010051206040519061125682613fba565b6001600160a01b038082541683526001820154166020830152600281015460408301526003810154606083015260048101546080830152610ea66127106113536005840154948560a0820152600685015460c0820152600785015460e082015260088501549560ff8781809916151561010085015260081c161515610120830152600986015461014083015286600a870154161515610160830152600b860154610180830152600c8601546101a083015286600d8701541615156101c0830152600e860154916102406101e0820198848a526010600f8a01549961020085019a8b520154818116151561022085015260081c1615159101526141fd565b0491519251604051938493846040919493926060820195825260208201520152565b346102885760603660031901126102885767ffffffffffffffff604435818111610288573660238201121561028857806004013591821161143f57604051916113c8601f8201601f19166020018461400f565b808352366024828401011161028857806024602093018385013761010051920101526020604051818101907f67697665617761795f766572696669636174696f6e5f76310000000000000000825260043560388201523060601b6058820152604c815261143481613ff3565b519020604051908152f35b634e487b7160e01b61010051526041600452602461010051fd5b613fa0565b346102885760603660031901126102885760043560249081359160443590611484614075565b600254831015610610578261010051526020600681526001600160a01b0390816040610100512054163303610a2d578461010051526006815260ff60086040610100512001541615610a0357846101005152600681526040610100512093601085019460ff865460081c166118b757871561184c5781156117e157600101908382541690604051848160448163095ea7b360e01b96878252610100516004830152868c83015261010051905af18015611705576117c4575b50847f000000000000000000000000000000000000000000000000000000000000000016916040519081526101005160048201528987820152848160448161010051875af1801561170557611797575b508483541698605f8202828104605f0361177e57605f820291808304605f036117655761012c42019384421161174c57858a6040519e8f907fe8e337000000000000000000000000000000000000000000000000000000000082526004820152015260448d015260648c01526064900460848b01526064900460a48a01526101005160c48a015260e4890152610100518881815a9361010492606095f19182156117055761010051988993611713575b508490541694604051957fe6a4390500000000000000000000000000000000000000000000000000000000875260048701528501528184604481610100515afa918215611705577f46450af493d655c2fb6a8c9b747b03c0123fa9107bde1cbb5e8e95265de9349a9560409561010051946116d6575b50805461ff00191661010017905584519788528701521693a3610100516001815580f35b6116f7919450823d84116116fe575b6116ef818361400f565b81019061422e565b92896116b2565b503d6116e5565b6040513d61010051823e3d90fd5b985091506060883d8211611744575b8161172f6060938361400f565b8101031261028857875197830151918461163c565b3d9150611722565b89634e487b7160e01b6101005152601160045261010051fd5b88634e487b7160e01b6101005152601160045261010051fd5b87634e487b7160e01b6101005152601160045261010051fd5b6117b690853d87116117bd575b6117ae818361400f565b8101906141cb565b508961158c565b503d6117a4565b6117da90853d87116117bd576117ae818361400f565b508961153c565b60405162461bcd60e51b815260206004820152602660248201527f546f6b656e20616d6f756e74206d75737420626520677265617465722074686160448201527f6e207a65726f00000000000000000000000000000000000000000000000000006064820152608490fd5b60405162461bcd60e51b815260206004820152602560248201527f5553444320616d6f756e74206d7573742062652067726561746572207468616e60448201527f207a65726f0000000000000000000000000000000000000000000000000000006064820152608490fd5b60046040517f049f8aca000000000000000000000000000000000000000000000000000000008152fd5b34610288576118ef36613f61565b906101005152600a6020526101005190604082209152602052602060ff6040610100512054166040519015158152f35b346102885760c036600319011261028857600435602435604435916001600160a01b039283811693848203611c735760643560843560a43567ffffffffffffffff811161028857611974903690600401613f30565b9461197d614075565b600254871015610610578661010051526020916006835260ff8060086040610100512001541615610a0357886101005152600684526040610100512097604051916119c783613fba565b888a541683528860018b015416998684019a8b52600281015460408501526003810154606085015260048101546080850152600581015460a0850152600681015460c0850152600781015460e0850152816008820154818116151561010087015260081c161515610120850152600981015493610140810194855261024083601081600a8601541615948515610160860152600b810154610180860152600c8101546101a086015282600d8201541615156101c0860152600e8101546101e0860152600f8101546102008601520154818116151561022085015260081c161515910152611c49578a6101005152600a8652610100518c6040822091528652604061010051205416611c1f576040518086018c8152606086901b6bffffffffffffffffffffffff191660208201526034810189905260548101889052611b3694611b3192909190611b2481607484015b03601f19810183528261400f565b51902093519236916142ad565b614304565b15611bf5577f5063e74643a3fe421d3fdbd3a8ae6c892ddad2083b57d5d609bcc489558350769584826040978a6101005152600a8652610100518c8a822091528652886101005120600160ff1982541617905582611be1575b505050508280611bb0575b50508351928352820152a4610100516001815580f35b611bda917f000000000000000000000000000000000000000000000000000000000000000061425a565b8882611b9a565b611bec93511661425a565b89848282611b8f565b60046040517fb05e92fa000000000000000000000000000000000000000000000000000000008152fd5b60046040517f57a400a1000000000000000000000000000000000000000000000000000000008152fd5b60046040517f28c85e46000000000000000000000000000000000000000000000000000000008152fd5b5f80fd5b3461028857610100518060031936011261028557602060405173b00b8c3ab078eb0f7dec6ce19c1a1da5bf4f8d7e8152f35b346102885761010051806003193601126102855760206001600160a01b0360015416604051908152f35b346102885760203660031901126102885760043560025481101561061057610100515260066020526040610100512060405190611d0f82613fba565b6001600160a01b038082541683526001820154166020830152600281015460408301526003810154606083015260048101546080830152610ea66127106113536005840154948560a0820152600685015460c0820152600785015460e082015260088501549560ff8781809916151561010085015260081c161515610120830152600986015461014083015286600a870154161515610160830152600b86015491610240610180820198848a526010600c8a0154996101a085019a8b5282600d8201541615156101c0860152600e8101546101e0860152600f8101546102008601520154818116151561022085015260081c1615159101526141fd565b346102885761010051806003193601126102855760206040516001600160a01b037f0000000000000000000000000000000000000000000000000000000000000000168152f35b34610288576020806003193601126102885760043560025481101561061057610100515260088152604061010051206040519081838254918281520190819261010051526101005190858220915b86828210611f02578686611eb78288038361400f565b6040519283928184019082855251809152604084019291610100515b828110611ee257505050500390f35b83516001600160a01b031685528695509381019392810192600101611ed3565b83546001600160a01b031685529093019260019283019201611ea1565b346102885760203660031901126102885760043560025481101561061057610e9290614494565b34610288576020366003190112610288576080611f61613f1a565b604051611f6d81613ff3565b6101005181526101005160208201526101005160408201526060610100519101526001600160a01b0380911661010051526009602052604061010051209060405190611fb882613ff3565b825492838352600181015460208401908152606060038460028501541693604087019485520154940193845260405194855251602085015251166040830152516060820152f35b346102885761200d36613f61565b90600254811015610610576101005152600a6020526101005190604082209152602052602060ff6040610100512054166040519015158152f35b3461028857610100518060031936011261028557612063614031565b5f6001600160a01b0360015473ffffffffffffffffffffffffffffffffffffffff198116600155167f8be0079c531659141344cd1fd0a4f28419497f9722a3daafe3b4186f6b6457e08280a36101005180f35b34610288576120c436613f61565b906101005152600860205261010051604081209081548310156102855760206001600160a01b036120f58585613f77565b9190546040519260031b1c168152f35b3461028857602036600319011261028857600435612121614075565b6002548110156106105780610100515260066020526001600160a01b0390816040610100512054163303610a2d57806101005152600660205260ff60086040610100512001541615610a03578061010051526006602052604061010051209160ff600d84015416156121fd57600c83019283546121d3577f1ac39badb95a4606f095538a1efb9cf6fc91b7b5a217294a93fbcee654da7a5a918161271061098160056020950154600b840154906141fd565b60046040517fc3ad6d26000000000000000000000000000000000000000000000000000000008152fd5b60046040517f81301dbb000000000000000000000000000000000000000000000000000000008152fd5b34610288576020366003190112610288576004356002548110156106105761010051526006602052604080610100512081519061226382613fba565b6001600160a01b0380825416835260018201541660208301526002810154838301526003810154606083015260048101546080830152600581015460a0830152600681015460c0830152600781015460e083015260088101549160ff8381809516151561010084015260081c16151561012082015261024060098301549384610140840152601081600a8601541615159485610160860152600b810154610180860152600c8101546101a086015282600d8201541615156101c0860152600e8101546101e0860152600f8101546102008601520154818116151561022085015260081c16151591015282519182526020820152f35b3461028857610100518060031936011261028557602060405160128152f35b34610288576101005180600319360112610285576020604051611b588152f35b346102885760203660031901126102885760043561010051526006602052610100516040902080806001600160a01b03808254169060018301541660a05260028201546003830154600484015460058501546006860154600787015490600888015492600989015494600a8a015460ff1696600b8b015498600c8c01549a600d8d015460ff169c600e01549d600f01549e6010015460e052604051806080525260a0516080516020015260805160400152608051606001526080516080015260805160a0015260805160c0015260805160e0015260ff81161515608051610100015260081c60ff161515608051610120015260805161014001521515608051610160015260805161018001526080516101a0015215156080516101c001526080516101e00152608051610200015260e05160ff161515608051610220015260e05160081c60ff161515608051610240015260805161026090f35b346102885760403660031901126102885760043561250d613f04565b9060405161251a81613fd7565b61010051815261010051602082015260406101005191015260025481101561061057610100515260076020526001600160a01b036040610100512091165f52602052606060405f2060405161256e81613fd7565b815491828252604060ff600260018401549360208601948552015416920191151582526040519283525160208301525115156040820152f35b3461028857610100518060031936011261028557602060405160fa8152f35b3461028857602036600319011261028857600435600254811015610610576111876020916145ad565b3461028857602036600319011261028857612608614075565b60025460043510156106105760043561010051526006806020526001600160a01b036040610100512054163303610a2d576004356101005152806020526040610100512090600882019081549160ff8316610f77576003840154421115610a035760ff8360081c16610e515760ff1992831660011790558281018054600485015461010051949291818111156130bf57505b60fa81029481860460fa14821517156130a857506126be612710809604809261424d565b9080613057575b508061301c575b50610100519184600b87015480612ff5575b50506101005194600e87015480612fca575b505050600790549401549060405191858352602083015260408201528260608201527f7f9f6537e4ad29210d0f7e62118d2eba1e810ccc528264a0b9b47106ad7d53a9608060043592a2612742614075565b600254600435101561061057600435610100515280602052336001600160a01b0360406101005120541603610a2d5760043561010051528060205260ff60086040610100512001541615610a03576004356101005152602052604061010051209060ff601083015460081c166118b757821561184c5780156117e1576040517f70a082310000000000000000000000000000000000000000000000000000000081523060048201526020816024816001600160a01b037f0000000000000000000000000000000000000000000000000000000000000000165afa80156117055784916101005191612f95575b5010612f2b576001600160a01b036001830154169061010051936001600160a01b037f00000000000000000000000000000000000000000000000000000000000000001683105f14612efb5782945b7f00000000000000000000000000000000000000000000000000000000000000006001600160a01b0316841015612ef4576001600160a01b037f000000000000000000000000000000000000000000000000000000000000000016905b506001600160a01b0386168414918215612ed3576001600160a01b0361291d8561291461290e612909866141e3565b61472e565b9161472e565b9060601b614210565b169461010051935f14612ecc5784935b506001600160a01b03831603612ec557835b6040517f1698ee820000000000000000000000000000000000000000000000000000000081526001600160a01b03898116600483015284166024820152610bb860448201529560208760648173229fd76da9062c1a10eb4193768e192bdea995725afa968715611705576101005197612ea4575b506001600160a01b03871615612d99575b5060206001600160a01b036001890154169160446040518094819363095ea7b360e01b835273b00b8c3ab078eb0f7dec6ce19c1a1da5bf4f8d7e6004840152602483015261010051905af1801561170557612d7a575b506040519063095ea7b360e01b825273b00b8c3ab078eb0f7dec6ce19c1a1da5bf4f8d7e60048301526024820152602081604481610100516001600160a01b037f0000000000000000000000000000000000000000000000000000000000000000165af1801561170557612d5b575b5081605f810204605f148215171561118f5782605f810204605f148315171561118f5761012c4201421161118f57604051928361016081011067ffffffffffffffff61016086011117612d47576064605f81946001600160a01b0382956101608901604052818c168952166020880152610bb86040880152620d89e7196060880152620d89e860808801528060a08801528360c0880152020460e085015202046101008201526101005161012082015261012c4201610140820152610140604051917f883164560000000000000000000000000000000000000000000000000000000083526001600160a01b0381511660048401526001600160a01b03602082015116602484015262ffffff6040820151166044840152606081015160020b6064840152608081015160020b608484015260a081015160a484015260c081015160c484015260e081015160e48401526101008101516101048401526001600160a01b03610120820151166101248401520151610144820152608081610164816101005173b00b8c3ab078eb0f7dec6ce19c1a1da5bf4f8d7e5af180156117055761010051918291612ce6575b506001600160a01b036001819561010061ff0019601083015416176010820155015416848616149461010051955f14612cdf5782955b5084167f0000000000000000000000000000000000000000000000000000000000000000851603612cd857505b604051938452602084015216907f46450af493d655c2fb6a8c9b747b03c0123fa9107bde1cbb5e8e95265de9349a604060043592a3610100516001815580f35b9050612c98565b8195612c6b565b9150506080813d608011612d3f575b81612d026080938361400f565b810103126102885760208101516fffffffffffffffffffffffffffffffff8116036102885760408101516060909101516001600160a01b03612c35565b3d9150612cf5565b634e487b7160e01b5f52604160045260245ffd5b612d739060203d6020116117bd576117ae818361400f565b5086612a89565b612d929060203d6020116117bd576117ae818361400f565b5087612a1a565b6040517fa16712950000000000000000000000000000000000000000000000000000000081526001600160a01b03808b16600483015285166024820152610bb860448201529650602087806064810103816101005173229fd76da9062c1a10eb4193768e192bdea995725af1968715611705576101005197612e83575b506001600160a01b038716803b1561028857604051917ff637731d0000000000000000000000000000000000000000000000000000000083526004830152816024816101005180945af1801561170557156129c45767ffffffffffffffff811161143f57604052886129c4565b612e9d91975060203d6020116116fe576116ef818361400f565b9589612e16565b612ebe91975060203d6020116116fe576116ef818361400f565b95896129b3565b809361293f565b819361292d565b6001600160a01b0361291d8561291461290e612eee866141e3565b9261472e565b83906128da565b6001600160a01b037f0000000000000000000000000000000000000000000000000000000000000000169461287d565b608460405162461bcd60e51b815260206004820152602560248201527f496e73756666696369656e7420555344432062616c616e636520696e20636f6e60448201527f74726163740000000000000000000000000000000000000000000000000000006064820152fd5b9150506020813d602011612fc2575b81612fb16020938361400f565b81010312610288578390518561282e565b3d9150612fa4565b600793929650612fde9060058901546141fd565b0494600160108801918254161790559086806126f0565b6130069192945060058801546141fd565b0491600d860160018282541617905584876126de565b613051906001600160a01b038754167f000000000000000000000000000000000000000000000000000000000000000061425a565b856126cc565b6130a2907f00000000000000000000000000000000000000000000000000000000000000007f000000000000000000000000000000000000000000000000000000000000000061425a565b866126c5565b634e487b7160e01b90526011600452602461010051fd5b905061269a565b34610288576101005180600319360112610285576020600254604051908152f35b346102885760203660031901126102885760043560025481101561061057610100515260066020526132486040610100512060405161312581613fba565b6001600160a01b03808354168252600183015416602082015260028201546040820152600382015460608201526004820154608082015260058201549160a0820190838252600681015460c0840152600781015460e084015260088101549360ff8581809716151561010087015260081c161515610120850152600982015461014085015284600a830154161515610160850152600b82015493610240610180820196868852600c8501546101a084015280600d8601541615156101c08401526010600e860154956101e08501968752600f8101546102008601520154818116151561022085015260081c1615159101526132246127109485926141fd565b049482613243856132398996518651906141fd565b049485925161424d565b61424d565b935190519181840393841161118f5761326483610ea69561424d565b90604051968796879260a094919796959260c0850198855260208501526040840152606083015260808201520152565b346102885760c03660031901126102885760243567ffffffffffffffff8111610288576132c5903690600401613f30565b9060443567ffffffffffffffff8111610288576132e6903690600401613f30565b919060643567ffffffffffffffff811161028857613308903690600401613f30565b60849391933567ffffffffffffffff81116102885761332b903690600401613f30565b91909460a43567ffffffffffffffff81116102885761334e903690600401613f30565b989060c05261335b614075565b6002546004351015610610576004356101005152600660205260ff60086040610100512001541615610a035787811480613747575b8061373e575b80613735575b156136f157600435610100515260066020526040610100512094604051956133c387613fba565b6001600160a01b0381541687526001600160a01b036001820154166020880152600281015460408801526003810154606088015260048101546080880152600581015460a0880152600681015460c0880152600781015460e088015260ff600882015481811615156101008a015260081c161515610120880152600981015461014088015260ff601081600a84015416159283156101608b0152600b8101546101808b0152600c8101546101a08b015282600d8201541615156101c08b0152600e8101546101e08b0152600f8101546102008b0152015481811615156102208a015260081c161515610240880152611c4957610100515b8281106134cc57610100516001815580f35b6134d7818484614359565b35906134e4818c8b614359565b35916001600160a01b0383168303610288578a908d613510848b613509828d8d614359565b3595614359565b35908410156136d75760c051948460051b86013595601e19813603018712156102885767ffffffffffffffff8782013511610288578681013560051b360360208883010113610288576136779661356f913691018035906020016142ad565b6004356101005152600a60205261010051846040822091526020528c60ff6040610100512054166136cc576135f091610140866040516135e481611b168a8d8b6020850197889290916074949284526bffffffffffffffffffffffff199060601b166020840152603483015260548201520190565b51902092015190614304565b156136c3576001600160a01b03916004356101005152600a602052610100518460408220915260205260406101005120600160ff198254161790558c8583816136ac575b5050508061367c575b604051948552602085015216917f5063e74643a3fe421d3fdbd3a8ae6c892ddad2083b57d5d609bcc48955835076604060043592a46140cf565b6134ba565b6136a781837f000000000000000000000000000000000000000000000000000000000000000061425a565b61363d565b8560206136bb9401511661425a565b8c8583613634565b505050506140cf565b5050505050506140cf565b634e487b7160e01b61010051526032600452602461010051fd5b606460405162461bcd60e51b815260206004820152601560248201527f4172726179206c656e677468206d69736d6174636800000000000000000000006044820152fd5b5088811461339c565b50838114613396565b50828114613390565b346102885760403660031901126102885760043560243561376f614075565b6002548210156106105781610100515260066020526001600160a01b036040610100512054163303610a2d57816101005152600660205260ff60086040610100512001541615610a035781610100515260066020526040610100512090600a82019081549160ff83166138515781156138275760016020938360097fb04b7d6145a7588fdcf339a22877d5965f861c171204fc37688058c5f6c06d3b97015560ff1916179055604051908152a2610100516001815580f35b60046040517f9dd854d3000000000000000000000000000000000000000000000000000000008152fd5b60046040517fc28d98b1000000000000000000000000000000000000000000000000000000008152fd5b34610288576101005180600319360112610285576020604051620d89e88152f35b34610288576101005180600319360112610285576020604051610bb88152f35b3461028857602036600319011261028857600435600254811015610610576101005152600660205260206111876040610100512061271061114c6111436040519361390685613fba565b6001600160a01b038082541686526001820154168786015260028101546040860152600381015460608601526004810154608086015260058101549460a08101958652600682015460c0820152600782015460e082015260088201549060ff8281809416151561010084015260081c161515610120820152600983015461014082015281600a840154161515610160820152610240600b8401549283610180840152600c8501546101a084015280600d8601541615156101c08401526010600e86015495866101e0860152600f8101546102008601520154818116151561022085015260081c1615159101526140ae565b346102885760e036600319011261028857613a10613f1a565b613a18614075565b60443560243510801590613e38575b613e0e57606435158015613e04575b613dda576127108060a43511613db05760c43511613d86576107d060c43510613d8657611b58613a6a60c43560a4356140ae565b11613d5c57602090613a8960843530336001600160a01b0385166140dd565b60025490613a96826140cf565b600255613cd9604051613aa881613fba565b3381526001600160a01b0383168582015260243560408201526044356060820152606435608082015260843560a08201526101005160c08201526101005160e08201526101005161010082015261010051610120820152610100516101408201526101005161016082015260a435610180820152610100516101a0820152610100516101c082015260c4356101e0820152610100516102008201526101005161022082015261010051610240820152836101005152600685526102406010604061010051206001600160a01b0384511673ffffffffffffffffffffffffffffffffffffffff19908183541617825560018201906001600160a01b038a870151169082541617905560408401516002820155606084015160038201556080840151600482015560a0840151600582015560c0840151600682015560e08401516007820155613c2b60088201613c0f6101008701511515829060ff801983541691151516179055565b610120860151815461ff00191690151560081b61ff0016179055565b6101408401516009820155613c566101608501511515600a83019060ff801983541691151516179055565b610180840151600b8201556101a0840151600c820155613c8c6101c08501511515600d83019060ff801983541691151516179055565b6101e0840151600e820155610200840151600f8201550191613cc16102208201511515849060ff801983541691151516179055565b0151815461ff00191690151560081b61ff0016179055565b6001600160a01b03604051911690827f871fd4b9080a369f6680972821bee74d8f2b69aa70373c013b9bd7b655c61842339280613d4a60c43560a435608435606435604435602435879260a094919796959260c0850198855260208501526040840152606083015260808201520152565b0390a460016101005155604051908152f35b60046040517f92ad5c75000000000000000000000000000000000000000000000000000000008152fd5b60046040517f5a434bb5000000000000000000000000000000000000000000000000000000008152fd5b60046040517f77745a0c000000000000000000000000000000000000000000000000000000008152fd5b60046040517f0baf7432000000000000000000000000000000000000000000000000000000008152fd5b5060843515613a36565b60046040517f536a71af000000000000000000000000000000000000000000000000000000008152fd5b504260243510613a27565b346102885760203660031901126102885760806001600160a01b0380613e67613f1a565b16610100515260096020526040610100512090815491600360018201549260028301541691015491604051938452602084015260408301526060820152f35b34611c73576040366003190112611c7357606090613ec2613f04565b6004355f5260076020526001600160a01b0360405f2091165f5260205260405f2080549060ff6002600183015492015416918352602083015215156040820152f35b602435906001600160a01b0382168203611c7357565b600435906001600160a01b0382168203611c7357565b9181601f84011215611c735782359167ffffffffffffffff8311611c73576020808501948460051b010111611c7357565b6040906003190112611c73576004359060243590565b8054821015613f8c575f5260205f2001905f90565b634e487b7160e01b5f52603260045260245ffd5b34611c73575f366003190112611c735760206040515f8152f35b610260810190811067ffffffffffffffff821117612d4757604052565b6060810190811067ffffffffffffffff821117612d4757604052565b6080810190811067ffffffffffffffff821117612d4757604052565b90601f8019910116810190811067ffffffffffffffff821117612d4757604052565b6001600160a01b0360015416330361404557565b60246040517f118cdaa7000000000000000000000000000000000000000000000000000000008152336004820152fd5b60025f54146140845760025f55565b60046040517f3ee5aeb5000000000000000000000000000000000000000000000000000000008152fd5b919082018092116140bb57565b634e487b7160e01b5f52601160045260245ffd5b5f1981146140bb5760010190565b9290604051927f23b872dd0000000000000000000000000000000000000000000000000000000060208501526001600160a01b03809216602485015216604483015260648201526064815260a081019181831067ffffffffffffffff841117612d475761414c9260405261414e565b565b905f602091828151910182855af1156141c0575f513d6141b757506001600160a01b0381163b155b61417d5750565b6024906001600160a01b03604051917f5274afe7000000000000000000000000000000000000000000000000000000008352166004820152fd5b60011415614176565b6040513d5f823e3d90fd5b90816020910312611c7357518015158103611c735790565b9064e8d4a51000918281029281840414901517156140bb57565b818102929181159184041417156140bb57565b811561421a570490565b634e487b7160e01b5f52601260045260245ffd5b90816020910312611c7357516001600160a01b0381168103611c735790565b919082039182116140bb57565b61414c926001600160a01b03604051937fa9059cbb0000000000000000000000000000000000000000000000000000000060208601521660248401526044830152604482526142a882613ff3565b61414e565b90929167ffffffffffffffff8411612d47578360051b60405192602080946142d78285018261400f565b8097815201918101928311611c7357905b8282106142f55750505050565b813581529083019083016142e8565b9091905f915b8151831015614352576020808460051b84010151915f8382105f1461434157505f525261433b60405f205b926140cf565b9161430a565b9060409261433b9483525220614335565b9150501490565b9190811015613f8c5760051b0190565b905f91825260066020526040822060405161438381613fba565b6001600160a01b038083541682526001830154166020820152600282015460408201526003820154606082015260048201546080820152600582015460a0820152600682015460c0820152600782015460e082015260088201549060ff90818084161593841561010084015260081c161515610120820152600984015461014082015281600a850154161515610160820152610240600b85015492836101808401526010600c87015496876101a086015282600d8201541615156101c0860152600e8101546101e0860152600f8101546102008601520154818116151561022085015260081c1615159101521561448d57614487576144825760019190565b600290565b50600190565b5050600390565b905f9182526006602052604082206040516144ae81613fba565b6001600160a01b038083541682526001830154166020820152600282015460408201526003820154606082015260048201546080820152600582015460a0820152600682015460c0820152600782015460e082015260088201549060ff90818084161593841561010084015260081c161515610120820152600984015461014082015281600a850154161515610160820152600b840154610180820152600c8401546101a082015281600d8501541615156101c0820152610240600e85015492836101e08401526010600f87015496876102008601520154818116151561022085015260081c1615159101521561448d57614487576144825760019190565b5f52600660205260405f20604051906145c582613fba565b6001600160a01b03808254168352600182015416602083015260028101546040830152600381015460608301526004810154806080840152600582015460a08401526006820154928360c08201526102406007840154938460e0840152601060088201549160ff8381809516151561010088015260081c161515610120860152600981015461014086015282600a820154161515610160860152600b810154610180860152600c8101546101a086015282600d8201541615156101c0860152600e8101546101e0860152600f8101546102008601520154818116151561022085015260081c16151591015281156146d2576146c892818111156146cb5750614210565b90565b9050614210565b5050505f90565b61271080821161472457821161471b576107d0821061471257611b58916146ff916140ae565b1161470b576001905f90565b5f90600490565b50505f90600390565b50505f90600290565b5050505f90600190565b908115614775578160019080821c8281018091116140bb5791905b84831061475557505050565b9091935061476c846147678184614210565b6140ae565b821c9190614749565b5f915056fea264697066735822122063c1cd634d1305e3c7942a51cf012e2bd1b9eae273ff310fd5ef571f132eea8b64736f6c63430008140033","linkReferences":{}},"methodIdentifiers":{"DEFAULT_V3_FEE_TIER()":"16f6d148","DEFAULT_V3_TICK_LOWER()":"e3c91b42","DEFAULT_V3_TICK_UPPER()":"186e68b2","MAX_COMBINED_PERCENTAGE()":"47fdc5d2","MIN_LIQUIDITY_PERCENTAGE()":"c917a13b","PLATFORM_FEE()":"34fbc9a1","TOKEN_DECIMALS()":"5b7f415c","UNISWAP_V2_FACTORY()":"99d8fae3","UNISWAP_V2_ROUTER()":"a82ed9ec","UNISWAP_V3_FACTORY()":"f73e5aab","UNISWAP_V3_POSITION_MANAGER()":"94cbab9d","USDC()":"89a30271","USDC_DECIMALS()":"c1419def","batchMerkleClaim(uint256,uint256[],address[],uint256[],uint256[],bytes32[][])":"1b7d20bd","canClaimDevTokens(uint256)":"bb106e9c","canClaimLiquidityTokens(uint256)":"83889d5c","cancelGiveaway(uint256)":"cb3bd80e","claimAndDeployLiquidity(uint256,uint256,uint256)":"a548e549","claimDevTokens(uint256)":"6f8cb96f","claimLiquidityTokens(uint256)":"e5d2418a","createGiveaway(address,uint256,uint256,uint256,uint256,uint256,uint256)":"12b861f9","deposit(uint256,uint256)":"e2bbb158","finalizeGiveaway(uint256)":"20a37e15","getAllocationBreakdown(uint256)":"1c905f08","getAverageAllocation(uint256)":"2ec3a60c","getConfigId(bytes32,bytes32,bytes)":"ada1b319","getDevTokenInfo(uint256)":"8aa7e67a","getGiveaway(uint256)":"f227d93e","getGiveawayParticipants(uint256)":"83e3839d","getLiquidityTokenInfo(uint256)":"b38010b8","getMerkleInfo(uint256)":"5d308fb8","getParticipant(uint256,address)":"35f3ad7a","getTokenPrice(uint256)":"c457fb37","getTokensForParticipants(uint256)":"16667728","getVerification(address)":"7fc9592d","giveawayCounter()":"1d5e9609","giveawayParticipants(uint256,uint256)":"6f9e2fc5","giveaways(uint256)":"3e06df3d","isMerkleClaimed(uint256,uint256)":"7a85abd7","merkleClaim(uint256,uint256,address,uint256,uint256,bytes32[])":"957cf0c5","merkleClaimed(uint256,uint256)":"9d72c2d4","owner()":"8da5cb5b","participants(uint256,address)":"02e060c6","platformFeeRecipient()":"eb13554f","registerPassportVerification(uint256,uint256)":"f1fdc50c","renounceOwnership()":"715018a6","setMerkleRoot(uint256,bytes32)":"18712c21","transferOwnership(address)":"f2fde38b","validateAllocationParameters(uint256,uint256)":"d7ba5d2f","verifications(address)":"080c98da","walletVerified(address)":"cabfb693"},"id":39}