{"abi":[{"type":"constructor","inputs":[{"name":"_usdc","type":"address","internalType":"address"},{"name":"_platformFeeRecipient","type":"address","internalType":"address"}],"stateMutability":"nonpayable"},{"type":"function","name":"DEFAULT_V3_FEE_TIER","inputs":[],"outputs":[{"name":"","type":"uint24","internalType":"uint24"}],"stateMutability":"view"},{"type":"function","name":"DEFAULT_V3_TICK_LOWER","inputs":[],"outputs":[{"name":"","type":"int24","internalType":"int24"}],"stateMutability":"view"},{"type":"function","name":"DEFAULT_V3_TICK_UPPER","inputs":[],"outputs":[{"name":"","type":"int24","internalType":"int24"}],"stateMutability":"view"},{"type":"function","name":"MAX_COMBINED_PERCENTAGE","inputs":[],"outputs":[{"name":"","type":"uint256","internalType":"uint256"}],"stateMutability":"view"},{"type":"function","name":"MIN_LIQUIDITY_PERCENTAGE","inputs":[],"outputs":[{"name":"","type":"uint256","internalType":"uint256"}],"stateMutability":"view"},{"type":"function","name":"PLATFORM_FEE","inputs":[],"outputs":[{"name":"","type":"uint256","internalType":"uint256"}],"stateMutability":"view"},{"type":"function","name":"TOKEN_DECIMALS","inputs":[],"outputs":[{"name":"","type":"uint8","internalType":"uint8"}],"stateMutability":"view"},{"type":"function","name":"UNISWAP_V2_FACTORY","inputs":[],"outputs":[{"name":"","type":"address","internalType":"address"}],"stateMutability":"view"},{"type":"function","name":"UNISWAP_V2_ROUTER","inputs":[],"outputs":[{"name":"","type":"address","internalType":"address"}],"stateMutability":"view"},{"type":"function","name":"UNISWAP_V3_FACTORY","inputs":[],"outputs":[{"name":"","type":"address","internalType":"address"}],"stateMutability":"view"},{"type":"function","name":"UNISWAP_V3_POSITION_MANAGER","inputs":[],"outputs":[{"name":"","type":"address","internalType":"address"}],"stateMutability":"view"},{"type":"function","name":"USDC","inputs":[],"outputs":[{"name":"","type":"address","internalType":"contract IERC20"}],"stateMutability":"view"},{"type":"function","name":"USDC_DECIMALS","inputs":[],"outputs":[{"name":"","type":"uint8","internalType":"uint8"}],"stateMutability":"view"},{"type":"function","name":"batchMerkleClaim","inputs":[{"name":"giveawayId","type":"uint256","internalType":"uint256"},{"name":"claimIndices","type":"uint256[]","internalType":"uint256[]"},{"name":"claimants","type":"address[]","internalType":"address[]"},{"name":"tokenAmounts","type":"uint256[]","internalType":"uint256[]"},{"name":"refundAmounts","type":"uint256[]","internalType":"uint256[]"},{"name":"merkleProofs","type":"bytes32[][]","internalType":"bytes32[][]"}],"outputs":[],"stateMutability":"nonpayable"},{"type":"function","name":"canClaimDevTokens","inputs":[{"name":"giveawayId","type":"uint256","internalType":"uint256"}],"outputs":[{"name":"canClaim","type":"bool","internalType":"bool"},{"name":"reason","type":"uint256","internalType":"uint256"}],"stateMutability":"view"},{"type":"function","name":"canClaimLiquidityTokens","inputs":[{"name":"giveawayId","type":"uint256","internalType":"uint256"}],"outputs":[{"name":"canClaim","type":"bool","internalType":"bool"},{"name":"reason","type":"uint256","internalType":"uint256"}],"stateMutability":"view"},{"type":"function","name":"cancelGiveaway","inputs":[{"name":"giveawayId","type":"uint256","internalType":"uint256"}],"outputs":[],"stateMutability":"nonpayable"},{"type":"function","name":"claimAndDeployLiquidity","inputs":[{"name":"giveawayId","type":"uint256","internalType":"uint256"},{"name":"usdcAmount","type":"uint256","internalType":"uint256"},{"name":"tokenAmount","type":"uint256","internalType":"uint256"}],"outputs":[],"stateMutability":"nonpayable"},{"type":"function","name":"claimDevTokens","inputs":[{"name":"giveawayId","type":"uint256","internalType":"uint256"}],"outputs":[],"stateMutability":"nonpayable"},{"type":"function","name":"claimLiquidityTokens","inputs":[{"name":"giveawayId","type":"uint256","internalType":"uint256"}],"outputs":[],"stateMutability":"nonpayable"},{"type":"function","name":"createGiveaway","inputs":[{"name":"tokenAddress","type":"address","internalType":"address"},{"name":"startTime","type":"uint256","internalType":"uint256"},{"name":"endTime","type":"uint256","internalType":"uint256"},{"name":"maxAllocation","type":"uint256","internalType":"uint256"},{"name":"totalTokensForSale","type":"uint256","internalType":"uint256"},{"name":"devPercentage","type":"uint256","internalType":"uint256"},{"name":"liquidityPercentage","type":"uint256","internalType":"uint256"}],"outputs":[{"name":"giveawayId","type":"uint256","internalType":"uint256"}],"stateMutability":"nonpayable"},{"type":"function","name":"deposit","inputs":[{"name":"giveawayId","type":"uint256","internalType":"uint256"},{"name":"amount","type":"uint256","internalType":"uint256"}],"outputs":[],"stateMutability":"nonpayable"},{"type":"function","name":"finalizeGiveaway","inputs":[{"name":"giveawayId","type":"uint256","internalType":"uint256"}],"outputs":[],"stateMutability":"nonpayable"},{"type":"function","name":"getAllocationBreakdown","inputs":[{"name":"giveawayId","type":"uint256","internalType":"uint256"}],"outputs":[{"name":"participantTokens","type":"uint256","internalType":"uint256"},{"name":"devTokens","type":"uint256","internalType":"uint256"},{"name":"liquidityTokens","type":"uint256","internalType":"uint256"},{"name":"participantPercentage","type":"uint256","internalType":"uint256"},{"name":"devPercentage","type":"uint256","internalType":"uint256"},{"name":"liquidityPercentage","type":"uint256","internalType":"uint256"}],"stateMutability":"view"},{"type":"function","name":"getAverageAllocation","inputs":[{"name":"giveawayId","type":"uint256","internalType":"uint256"}],"outputs":[{"name":"avgAllocation","type":"uint256","internalType":"uint256"}],"stateMutability":"view"},{"type":"function","name":"getConfigId","inputs":[{"name":"destinationChainId","type":"bytes32","internalType":"bytes32"},{"name":"userIdentifier","type":"bytes32","internalType":"bytes32"},{"name":"userDefinedData","type":"bytes","internalType":"bytes"}],"outputs":[{"name":"","type":"bytes32","internalType":"bytes32"}],"stateMutability":"view"},{"type":"function","name":"getDevTokenInfo","inputs":[{"name":"giveawayId","type":"uint256","internalType":"uint256"}],"outputs":[{"name":"devTokensAllocated","type":"uint256","internalType":"uint256"},{"name":"devTokensClaimed","type":"uint256","internalType":"uint256"},{"name":"devPercentage","type":"uint256","internalType":"uint256"}],"stateMutability":"view"},{"type":"function","name":"getGiveaway","inputs":[{"name":"giveawayId","type":"uint256","internalType":"uint256"}],"outputs":[{"name":"giveaway","type":"tuple","internalType":"struct Giveaway.GiveawayData","components":[{"name":"projectOwner","type":"address","internalType":"address"},{"name":"tokenAddress","type":"address","internalType":"address"},{"name":"startTime","type":"uint256","internalType":"uint256"},{"name":"endTime","type":"uint256","internalType":"uint256"},{"name":"maxAllocation","type":"uint256","internalType":"uint256"},{"name":"totalTokensForSale","type":"uint256","internalType":"uint256"},{"name":"totalDeposited","type":"uint256","internalType":"uint256"},{"name":"participantCount","type":"uint256","internalType":"uint256"},{"name":"finalized","type":"bool","internalType":"bool"},{"name":"cancelled","type":"bool","internalType":"bool"},{"name":"merkleRoot","type":"bytes32","internalType":"bytes32"},{"name":"merkleEnabled","type":"bool","internalType":"bool"},{"name":"devPercentage","type":"uint256","internalType":"uint256"},{"name":"devTokensClaimed","type":"uint256","internalType":"uint256"},{"name":"devTokensAllocated","type":"bool","internalType":"bool"},{"name":"liquidityPercentage","type":"uint256","internalType":"uint256"},{"name":"liquidityTokensClaimed","type":"uint256","internalType":"uint256"},{"name":"liquidityTokensAllocated","type":"bool","internalType":"bool"},{"name":"liquidityDeployed","type":"bool","internalType":"bool"}]}],"stateMutability":"view"},{"type":"function","name":"getGiveawayParticipants","inputs":[{"name":"giveawayId","type":"uint256","internalType":"uint256"}],"outputs":[{"name":"participantList","type":"address[]","internalType":"address[]"}],"stateMutability":"view"},{"type":"function","name":"getLiquidityTokenInfo","inputs":[{"name":"giveawayId","type":"uint256","internalType":"uint256"}],"outputs":[{"name":"liquidityTokensAllocated","type":"uint256","internalType":"uint256"},{"name":"liquidityTokensClaimed","type":"uint256","internalType":"uint256"},{"name":"liquidityPercentage","type":"uint256","internalType":"uint256"}],"stateMutability":"view"},{"type":"function","name":"getMerkleInfo","inputs":[{"name":"giveawayId","type":"uint256","internalType":"uint256"}],"outputs":[{"name":"merkleRoot","type":"bytes32","internalType":"bytes32"},{"name":"merkleEnabled","type":"bool","internalType":"bool"}],"stateMutability":"view"},{"type":"function","name":"getParticipant","inputs":[{"name":"giveawayId","type":"uint256","internalType":"uint256"},{"name":"participant","type":"address","internalType":"address"}],"outputs":[{"name":"p","type":"tuple","internalType":"struct Giveaway.Participant","components":[{"name":"depositAmount","type":"uint256","internalType":"uint256"},{"name":"userIdentifier","type":"uint256","internalType":"uint256"},{"name":"verified","type":"bool","internalType":"bool"}]}],"stateMutability":"view"},{"type":"function","name":"getTokenPrice","inputs":[{"name":"giveawayId","type":"uint256","internalType":"uint256"}],"outputs":[{"name":"tokenPrice","type":"uint256","internalType":"uint256"}],"stateMutability":"view"},{"type":"function","name":"getTokensForParticipants","inputs":[{"name":"giveawayId","type":"uint256","internalType":"uint256"}],"outputs":[{"name":"tokensForParticipants","type":"uint256","internalType":"uint256"}],"stateMutability":"view"},{"type":"function","name":"getVerification","inputs":[{"name":"wallet","type":"address","internalType":"address"}],"outputs":[{"name":"verification","type":"tuple","internalType":"struct Giveaway.PassportVerification","components":[{"name":"nullifier","type":"uint256","internalType":"uint256"},{"name":"userIdentifier","type":"uint256","internalType":"uint256"},{"name":"wallet","type":"address","internalType":"address"},{"name":"timestamp","type":"uint256","internalType":"uint256"}]}],"stateMutability":"view"},{"type":"function","name":"giveawayCounter","inputs":[],"outputs":[{"name":"","type":"uint256","internalType":"uint256"}],"stateMutability":"view"},{"type":"function","name":"giveawayParticipants","inputs":[{"name":"","type":"uint256","internalType":"uint256"},{"name":"","type":"uint256","internalType":"uint256"}],"outputs":[{"name":"","type":"address","internalType":"address"}],"stateMutability":"view"},{"type":"function","name":"giveaways","inputs":[{"name":"","type":"uint256","internalType":"uint256"}],"outputs":[{"name":"projectOwner","type":"address","internalType":"address"},{"name":"tokenAddress","type":"address","internalType":"address"},{"name":"startTime","type":"uint256","internalType":"uint256"},{"name":"endTime","type":"uint256","internalType":"uint256"},{"name":"maxAllocation","type":"uint256","internalType":"uint256"},{"name":"totalTokensForSale","type":"uint256","internalType":"uint256"},{"name":"totalDeposited","type":"uint256","internalType":"uint256"},{"name":"participantCount","type":"uint256","internalType":"uint256"},{"name":"finalized","type":"bool","internalType":"bool"},{"name":"cancelled","type":"bool","internalType":"bool"},{"name":"merkleRoot","type":"bytes32","internalType":"bytes32"},{"name":"merkleEnabled","type":"bool","internalType":"bool"},{"name":"devPercentage","type":"uint256","internalType":"uint256"},{"name":"devTokensClaimed","type":"uint256","internalType":"uint256"},{"name":"devTokensAllocated","type":"bool","internalType":"bool"},{"name":"liquidityPercentage","type":"uint256","internalType":"uint256"},{"name":"liquidityTokensClaimed","type":"uint256","internalType":"uint256"},{"name":"liquidityTokensAllocated","type":"bool","internalType":"bool"},{"name":"liquidityDeployed","type":"bool","internalType":"bool"}],"stateMutability":"view"},{"type":"function","name":"isMerkleClaimed","inputs":[{"name":"giveawayId","type":"uint256","internalType":"uint256"},{"name":"claimIndex","type":"uint256","internalType":"uint256"}],"outputs":[{"name":"claimed","type":"bool","internalType":"bool"}],"stateMutability":"view"},{"type":"function","name":"merkleClaim","inputs":[{"name":"giveawayId","type":"uint256","internalType":"uint256"},{"name":"claimIndex","type":"uint256","internalType":"uint256"},{"name":"participant","type":"address","internalType":"address"},{"name":"tokenAmount","type":"uint256","internalType":"uint256"},{"name":"refundAmount","type":"uint256","internalType":"uint256"},{"name":"merkleProof","type":"bytes32[]","internalType":"bytes32[]"}],"outputs":[],"stateMutability":"nonpayable"},{"type":"function","name":"merkleClaimed","inputs":[{"name":"","type":"uint256","internalType":"uint256"},{"name":"","type":"uint256","internalType":"uint256"}],"outputs":[{"name":"","type":"bool","internalType":"bool"}],"stateMutability":"view"},{"type":"function","name":"owner","inputs":[],"outputs":[{"name":"","type":"address","internalType":"address"}],"stateMutability":"view"},{"type":"function","name":"participants","inputs":[{"name":"","type":"uint256","internalType":"uint256"},{"name":"","type":"address","internalType":"address"}],"outputs":[{"name":"depositAmount","type":"uint256","internalType":"uint256"},{"name":"userIdentifier","type":"uint256","internalType":"uint256"},{"name":"verified","type":"bool","internalType":"bool"}],"stateMutability":"view"},{"type":"function","name":"platformFeeRecipient","inputs":[],"outputs":[{"name":"","type":"address","internalType":"address"}],"stateMutability":"view"},{"type":"function","name":"registerPassportVerification","inputs":[{"name":"nullifier","type":"uint256","internalType":"uint256"},{"name":"userIdentifier","type":"uint256","internalType":"uint256"}],"outputs":[],"stateMutability":"nonpayable"},{"type":"function","name":"renounceOwnership","inputs":[],"outputs":[],"stateMutability":"nonpayable"},{"type":"function","name":"setMerkleRoot","inputs":[{"name":"giveawayId","type":"uint256","internalType":"uint256"},{"name":"merkleRoot_","type":"bytes32","internalType":"bytes32"}],"outputs":[],"stateMutability":"nonpayable"},{"type":"function","name":"transferOwnership","inputs":[{"name":"newOwner","type":"address","internalType":"address"}],"outputs":[],"stateMutability":"nonpayable"},{"type":"function","name":"validateAllocationParameters","inputs":[{"name":"devPercentage","type":"uint256","internalType":"uint256"},{"name":"liquidityPercentage","type":"uint256","internalType":"uint256"}],"outputs":[{"name":"isValid","type":"bool","internalType":"bool"},{"name":"reason","type":"uint256","internalType":"uint256"}],"stateMutability":"pure"},{"type":"function","name":"verifications","inputs":[{"name":"","type":"address","internalType":"address"}],"outputs":[{"name":"nullifier","type":"uint256","internalType":"uint256"},{"name":"userIdentifier","type":"uint256","internalType":"uint256"},{"name":"wallet","type":"address","internalType":"address"},{"name":"timestamp","type":"uint256","internalType":"uint256"}],"stateMutability":"view"},{"type":"function","name":"walletVerified","inputs":[{"name":"","type":"address","internalType":"address"}],"outputs":[{"name":"","type":"bool","internalType":"bool"}],"stateMutability":"view"},{"type":"event","name":"Deposit","inputs":[{"name":"giveawayId","type":"uint256","indexed":true,"internalType":"uint256"},{"name":"participant","type":"address","indexed":true,"internalType":"address"},{"name":"amount","type":"uint256","indexed":false,"internalType":"uint256"},{"name":"verified","type":"bool","indexed":false,"internalType":"bool"}],"anonymous":false},{"type":"event","name":"DevTokensClaimed","inputs":[{"name":"giveawayId","type":"uint256","indexed":true,"internalType":"uint256"},{"name":"projectOwner","type":"address","indexed":true,"internalType":"address"},{"name":"tokenAmount","type":"uint256","indexed":false,"internalType":"uint256"}],"anonymous":false},{"type":"event","name":"GiveawayCancelled","inputs":[{"name":"giveawayId","type":"uint256","indexed":true,"internalType":"uint256"}],"anonymous":false},{"type":"event","name":"GiveawayCreated","inputs":[{"name":"giveawayId","type":"uint256","indexed":true,"internalType":"uint256"},{"name":"projectOwner","type":"address","indexed":true,"internalType":"address"},{"name":"tokenAddress","type":"address","indexed":true,"internalType":"address"},{"name":"startTime","type":"uint256","indexed":false,"internalType":"uint256"},{"name":"endTime","type":"uint256","indexed":false,"internalType":"uint256"},{"name":"maxAllocation","type":"uint256","indexed":false,"internalType":"uint256"},{"name":"totalTokensForSale","type":"uint256","indexed":false,"internalType":"uint256"},{"name":"devPercentage","type":"uint256","indexed":false,"internalType":"uint256"},{"name":"liquidityPercentage","type":"uint256","indexed":false,"internalType":"uint256"}],"anonymous":false},{"type":"event","name":"GiveawayFinalized","inputs":[{"name":"giveawayId","type":"uint256","indexed":true,"internalType":"uint256"},{"name":"totalDeposited","type":"uint256","indexed":false,"internalType":"uint256"},{"name":"participantCount","type":"uint256","indexed":false,"internalType":"uint256"},{"name":"devTokensAllocated","type":"uint256","indexed":false,"internalType":"uint256"},{"name":"liquidityTokensAllocated","type":"uint256","indexed":false,"internalType":"uint256"}],"anonymous":false},{"type":"event","name":"LiquidityDeployed","inputs":[{"name":"giveawayId","type":"uint256","indexed":true,"internalType":"uint256"},{"name":"poolAddress","type":"address","indexed":true,"internalType":"address"},{"name":"amountToken","type":"uint256","indexed":false,"internalType":"uint256"},{"name":"amountUSDC","type":"uint256","indexed":false,"internalType":"uint256"}],"anonymous":false},{"type":"event","name":"LiquidityTokensClaimed","inputs":[{"name":"giveawayId","type":"uint256","indexed":true,"internalType":"uint256"},{"name":"projectOwner","type":"address","indexed":true,"internalType":"address"},{"name":"tokenAmount","type":"uint256","indexed":false,"internalType":"uint256"}],"anonymous":false},{"type":"event","name":"MerkleRootSet","inputs":[{"name":"giveawayId","type":"uint256","indexed":true,"internalType":"uint256"},{"name":"merkleRoot","type":"bytes32","indexed":false,"internalType":"bytes32"}],"anonymous":false},{"type":"event","name":"MerkleTokensClaimed","inputs":[{"name":"giveawayId","type":"uint256","indexed":true,"internalType":"uint256"},{"name":"claimIndex","type":"uint256","indexed":true,"internalType":"uint256"},{"name":"participant","type":"address","indexed":true,"internalType":"address"},{"name":"tokenAmount","type":"uint256","indexed":false,"internalType":"uint256"},{"name":"refundAmount","type":"uint256","indexed":false,"internalType":"uint256"}],"anonymous":false},{"type":"event","name":"OwnershipTransferred","inputs":[{"name":"previousOwner","type":"address","indexed":true,"internalType":"address"},{"name":"newOwner","type":"address","indexed":true,"internalType":"address"}],"anonymous":false},{"type":"event","name":"PassportVerified","inputs":[{"name":"wallet","type":"address","indexed":true,"internalType":"address"},{"name":"userIdentifier","type":"uint256","indexed":true,"internalType":"uint256"},{"name":"nullifier","type":"uint256","indexed":false,"internalType":"uint256"},{"name":"timestamp","type":"uint256","indexed":false,"internalType":"uint256"}],"anonymous":false},{"type":"error","name":"AlreadyParticipated","inputs":[]},{"type":"error","name":"DevTokensAlreadyClaimed","inputs":[]},{"type":"error","name":"DevTokensNotAllocated","inputs":[]},{"type":"error","name":"GiveawayAlreadyCancelled","inputs":[]},{"type":"error","name":"GiveawayAlreadyFinalized","inputs":[]},{"type":"error","name":"GiveawayNotActive","inputs":[]},{"type":"error","name":"GiveawayNotFinalized","inputs":[]},{"type":"error","name":"GiveawayNotFound","inputs":[]},{"type":"error","name":"InsufficientDeposit","inputs":[]},{"type":"error","name":"InvalidAllocation","inputs":[]},{"type":"error","name":"InvalidAllocationSum","inputs":[]},{"type":"error","name":"InvalidDevPercentage","inputs":[]},{"type":"error","name":"InvalidLiquidityPercentage","inputs":[]},{"type":"error","name":"InvalidMerkleProof","inputs":[]},{"type":"error","name":"InvalidMerkleRoot","inputs":[]},{"type":"error","name":"InvalidNullifier","inputs":[]},{"type":"error","name":"InvalidTimeRange","inputs":[]},{"type":"error","name":"InvalidUserIdentifier","inputs":[]},{"type":"error","name":"LiquidityAlreadyDeployed","inputs":[]},{"type":"error","name":"LiquidityTokensAlreadyClaimed","inputs":[]},{"type":"error","name":"LiquidityTokensNotAllocated","inputs":[]},{"type":"error","name":"MerkleAlreadyClaimed","inputs":[]},{"type":"error","name":"MerkleAlreadySet","inputs":[]},{"type":"error","name":"MerkleNotEnabled","inputs":[]},{"type":"error","name":"NullifierAlreadyUsed","inputs":[]},{"type":"error","name":"OwnableInvalidOwner","inputs":[{"name":"owner","type":"address","internalType":"address"}]},{"type":"error","name":"OwnableUnauthorizedAccount","inputs":[{"name":"account","type":"address","internalType":"address"}]},{"type":"error","name":"ReentrancyGuardReentrantCall","inputs":[]},{"type":"error","name":"SafeERC20FailedOperation","inputs":[{"name":"token","type":"address","internalType":"address"}]},{"type":"error","name":"SybilDetected","inputs":[]},{"type":"error","name":"TransferFailed","inputs":[]},{"type":"error","name":"UnauthorizedAccess","inputs":[]},{"type":"error","name":"UserIdentifierAlreadyRegistered","inputs":[]},{"type":"error","name":"VerificationRequired","inputs":[]},{"type":"error","name":"WalletAlreadyVerified","inputs":[]}],"bytecode":{"object":"0x60c0346200014857601f620047ed38819003918201601f19168301916001600160401b038311848410176200014c57808492604094855283398101031262000148576200005a6020620000528362000160565b920162000160565b60015f553315620001305760018054336001600160a01b031982168117909255604051936001600160a01b0392909183167f8be0079c531659141344cd1fd0a4f28419497f9722a3daafe3b4186f6b6457e05f80a31660805260a0526146779081620001768239608051818181610c0e015281816114e501528181611b3e01528181611db20152818161273d01528181612793015281816127c0015281816127f90152818161299901528181612ba901528181612e3a01528181612f780152613567015260a0518181816108670152612f570152f35b604051631e4fbdf760e01b81525f6004820152602490fd5b5f80fd5b634e487b7160e01b5f52604160045260245ffd5b51906001600160a01b0382168203620001485756fe610120806040526004361015610013575f80fd5b5f60e0525f3560e01c90816302e060c614613d6d57508063080c98da14613d0c57806312b861f9146138ce578063166677281461379557806316f6d14814613776578063186e68b21461375657806318712c21146136325780631b7d20bd146131845780631c905f0814612fde5780631d5e960914612fbe57806320a37e15146125515780632ec3a60c1461252857806334fbc9a11461250a57806335f3ad7a146124595780633e06df3d146122fe57806347fdc5d2146122df5780635b7f415c146122c15780635d308fb8146121925780636f8cb96f146120765780636f9e2fc514612029578063715018a614611fbc5780637a85abd714611f775780637fc9592d14611ec457806383889d5c14611e9d57806383e3839d14611dd657806389a3027114611d905780638aa7e67a14611c595780638da5cb5b14611c3057806394cbab9d14611bff578063957cf0c5146118b257806399d8fae3146114065780639d72c2d414611877578063a548e5491461140b578063a82ed9ec14611406578063ada1b31914611325578063b38010b8146111cc578063bb106e9c146111a5578063c1419def14611187578063c457fb3714610fbb578063c917a13b14610f9c578063cabfb69314610f5b578063cb3bd80e14610e69578063d7ba5d2f14610e3a578063e2bbb15814610a49578063e3c91b4214610a28578063e5d2418a1461088b578063eb13554f14610845578063f1fdc50c14610620578063f227d93e1461033c578063f2fde38b1461028c5763f73e5aab14610252575f80fd5b346102865760e0518060031936011261028357602060405173229fd76da9062c1a10eb4193768e192bdea995728152f35b80fd5b60e05180fd5b34610286576020366003190112610286576102a5613de1565b6102ad613ef8565b6001600160a01b0380911690811561030a576001548273ffffffffffffffffffffffffffffffffffffffff19821617600155167f8be0079c531659141344cd1fd0a4f28419497f9722a3daafe3b4186f6b6457e05f80a360e05180f35b60246040517f1e4fbdf700000000000000000000000000000000000000000000000000000000815260e0516004820152fd5b346102865760203660031901126102865760405161035981613e81565b60e051815260e051602082015260e051604082015260e051606082015260e051608082015260e05160a082015260e05160c082015260e05160e082015260e05161010082015260e05161012082015260e05161014082015260e05161016082015260e05161018082015260e0516101a082015260e0516101c082015260e0516101e082015260e05161020082015260e05161022082015261024060e051910152600254600435908110156105f65760e051526006602052610260604060e0512061024060405161042881613e81565b60ff60106001600160a01b03855416948584526001600160a01b036001820154166020850152600281015460408501526003810154606085015260048101546080850152600581015460a0850152600681015460c0850152600781015460e0850152826008820154818116151561010087015260081c161515610120850152600981015461014085015282600a820154161515610160850152600b810154610180850152600c8101546101a085015282600d8201541615156101c0850152600e8101546101e0850152600f8101546102008501520154818116151561022084015260081c161515828201526040519283526001600160a01b03602082015116602084015260408101516040840152606081015160608401526080810151608084015260a081015160a084015260c081015160c084015260e081015160e08401526101008101511515610100840152610120810151151561012084015261014081015161014084015261016081015115156101608401526101808101516101808401526101a08101516101a08401526101c081015115156101c08401526101e08101516101e0840152610200810151610200840152610220810151151561022084015201511515610240820152f35b60046040517fd6629f91000000000000000000000000000000000000000000000000000000008152fd5b346102865761062e36613e28565b90610637613f3c565b801561081b5781156107f15733156107f1578060e05152602060038152604060e05120548381151591826107e6575b50506107bc578260e051526004815260e05160ff60408220541690816107a2575b50610778578160e05152600381528260e051816040822055526004815260e051604081209060ff1991600183825416179055339052600582526001604060e05120918254161790556040516106db81613eba565b82815260038282018581526040830133815260608401914283523360e0515260098652604060e05120945185555160018501556001600160a01b036002850191511673ffffffffffffffffffffffffffffffffffffffff198254161790555191015560405191825242908201527fa7b44c47947fd71b25ebed750fd60561eae70e315cf32379d9cddf8ba5e6f89160403392a360e0516001815580f35b60046040517f29393238000000000000000000000000000000000000000000000000000000008152fd5b90503390526005815260ff604060e0512054161584610687565b60046040517fcad2ae02000000000000000000000000000000000000000000000000000000008152fd5b141590508385610666565b60046040517ff0c426db000000000000000000000000000000000000000000000000000000008152fd5b60046040517f5d904cb2000000000000000000000000000000000000000000000000000000008152fd5b346102865760e051806003193601126102835760206040516001600160a01b037f0000000000000000000000000000000000000000000000000000000000000000168152f35b34610286576020366003190112610286576004356108a7613f3c565b6002548110156105f6578060e0515260066020526001600160a01b039081604060e05120541633036109fe578060e05152600660205260ff6008604060e05120015416156109d4578060e051526006602052604060e051209160ff601084015416156109aa57600f8301928354610980577f162883d063a651b0a470c576f0bece23d32d6d8e322f2d21a8f981013e21fd08918161271061095360056020950154600e840154906140c4565b0480965561096c86836001840154168484541690614121565b541693604051908152a360e0516001815580f35b60046040517f0f45d0ce000000000000000000000000000000000000000000000000000000008152fd5b60046040517f5c10a5ab000000000000000000000000000000000000000000000000000000008152fd5b60046040517ff9928a3b000000000000000000000000000000000000000000000000000000008152fd5b60046040517f344fd586000000000000000000000000000000000000000000000000000000008152fd5b346102865760e05180600319360112610283576020604051620d89e7198152f35b3461028657610a5736613e28565b610a5f613f3c565b6002548210156105f6578160e0515260209160068352604060e0512092604051610a8881613e81565b60106001600160a01b039182875416815260019683888201541685830152600281015490604083019182526003810154926060810193845260048201546080820152600582015460a0820152600682015460c0820152600782015460e0820152610240600883015460ff96878281809416151561010087015260081c1615159485610120860152600981015461014086015282600a820154161515610160860152600b810154610180860152600c8101546101a086015282600d8201541615156101c0860152600e8101546101e0860152600f8101546102008601520154818116151561022085015260081c161515910152610e1057514210908115610e05575b50610ddb573360e0515260058352604060e05120541615610db1578315610d87578260e0515260078252604060e05120335f52825260405f2054610d5d573360e051526009825282604060e05120604051610be381613eba565b8154815260606003898401549384888501528660028201541660408501520154910152610c328630337f0000000000000000000000000000000000000000000000000000000000000000613fa4565b610c8c604051610c4181613e9e565b8781528581019283526002604082018a81528560e051526007885260e0519460408620335f52895260405f2093518455518b84015551151591019060ff801983541691151516179055565b526008825260e0516040812080549168010000000000000000831015610d47575081610cbf918880969594018155613e3e565b819291549060031b9133831b921b19161790558260e05152600681526006604060e0512001610cef858254613f75565b90558260e05152600681526007604060e0512001610d0d8154613f96565b90556040519384528301527feb12850150989be404dd3e282269874f7944d367be91f8fae8ddd3c6e67405bc60403393a360e05190815580f35b634e487b7160e01b90526041600452602460e051fd5b60046040517f22ce1a07000000000000000000000000000000000000000000000000000000008152fd5b60046040517f0e1eddda000000000000000000000000000000000000000000000000000000008152fd5b60046040517fd2f96976000000000000000000000000000000000000000000000000000000008152fd5b60046040517f5d15a36e000000000000000000000000000000000000000000000000000000008152fd5b905051421187610b89565b60046040517f6401e5b5000000000000000000000000000000000000000000000000000000008152fd5b3461028657610e51610e4b36613e28565b906145a0565b604080519215158352602083019190915290f35b0390f35b3461028657602036600319011261028657600435610e85613f3c565b6002548110156105f6578060e0515260066020526001600160a01b0380604060e05120541633036109fe578160e051526006602052604060e0512090600882019182549260ff8416610f31576002820154421015610ddb57610100610f029461ff0019161790556005826001830154169282541691015491614121565b60e051907f349cc2947738b01c78cd3a0723458c7c56cca9bab2cf2a7f4c38affaea3e52488280a26001815580f35b60046040517f469cfe4c000000000000000000000000000000000000000000000000000000008152fd5b34610286576020366003190112610286576001600160a01b03610f7c613de1565b1660e051526005602052602060ff604060e0512054166040519015158152f35b346102865760e051806003193601126102835760206040516107d08152f35b34610286576020366003190112610286576004356002548110156105f65760e051526006602052604060e05120604051610ff481613e81565b6001600160a01b0380835416825260018301541660208201526002820154604082015260038201546060820152611108600483015492608083019384526127106111016110f860058401549360a0870194855260068101549660c08101978852600782015460e082015260088201549060ff8281809416151561010084015260081c161515610120820152600983015461014082015281600a840154161515610160820152610240600b8401549283610180840152600c8501546101a084015280600d8601541615156101c08401526010600e86015495866101e0860152600f8101546102008601520154818116151561022085015260081c161515910152613f75565b925192836140c4565b0490614114565b815192519092811061115c575051670de0b6b3a7640000908181029181830414901517156111445760209161113c916140d7565b604051908152f35b634e487b7160e01b60e051526011600452602460e051fd5b670de0b6b3a76400008082029250811591830414171561114457602091611182916140d7565b61113c565b346102865760e0518060031936011261028357602060405160068152f35b34610286576020366003190112610286576004356002548110156105f657610e5190614230565b34610286576020366003190112610286576004356002548110156105f65760e051526006602052604060e051206040519061120682613e81565b6001600160a01b038082541683526001820154166020830152600281015460408301526003810154606083015260048101546080830152610e656127106113036005840154948560a0820152600685015460c0820152600785015460e082015260088501549560ff8781809916151561010085015260081c161515610120830152600986015461014083015286600a870154161515610160830152600b860154610180830152600c8601546101a083015286600d8701541615156101c0830152600e860154916102406101e0820198848a526010600f8a01549961020085019a8b520154818116151561022085015260081c1615159101526140c4565b0491519251604051938493846040919493926060820195825260208201520152565b346102865760603660031901126102865767ffffffffffffffff60443581811161028657366023820112156102865780600401359182116113ee5760405191611378601f8201601f191660200184613ed6565b808352366024828401011161028657806024602093018385013760e051920101526020604051818101907f67697665617761795f766572696669636174696f6e5f76310000000000000000825260043560388201523060601b6058820152604c81526113e381613eba565b519020604051908152f35b634e487b7160e01b60e051526041600452602460e051fd5b613e67565b346102865760603660031901126102865760043560249081359160443590611431613f3c565b6002548310156105f6578260e051526020600681526001600160a01b039081604060e05120541633036109fe578460e051526006815260ff6008604060e05120015416156109d4578460e0515260068152604060e0512093601085019460ff865460081c1661184d5787156117e257811561177757600101908382541690604051848160448163095ea7b360e01b9687825260e0516004830152868c83015260e051905af180156116a25761175a575b50847f0000000000000000000000000000000000000000000000000000000000000000169160405190815260e05160048201528987820152848160448160e051875af180156116a25761172d575b508483541698605f8202828104605f0361171657605f820291808304605f036116ff5761012c4201938442116116e857858a6040519e8f907fe8e337000000000000000000000000000000000000000000000000000000000082526004820152015260448d015260648c01526064900460848b01526064900460a48a015260e05160c48a015260e489015260e0518881815a9361010492606095f19182156116a25760e0519889936116af575b508490541694604051957fe6a439050000000000000000000000000000000000000000000000000000000087526004870152850152818460448160e0515afa9182156116a2577f46450af493d655c2fb6a8c9b747b03c0123fa9107bde1cbb5e8e95265de9349a9560409560e05194611673575b50805461ff00191661010017905584519788528701521693a360e0516001815580f35b611694919450823d841161169b575b61168c8183613ed6565b8101906140f5565b9289611650565b503d611682565b6040513d60e051823e3d90fd5b985091506060883d82116116e0575b816116cb60609383613ed6565b810103126102865787519783015191846115dc565b3d91506116be565b89634e487b7160e01b60e05152601160045260e051fd5b88634e487b7160e01b60e05152601160045260e051fd5b87634e487b7160e01b60e05152601160045260e051fd5b61174c90853d8711611753575b6117448183613ed6565b810190614092565b508961152f565b503d61173a565b61177090853d8711611753576117448183613ed6565b50896114e1565b60405162461bcd60e51b815260206004820152602660248201527f546f6b656e20616d6f756e74206d75737420626520677265617465722074686160448201527f6e207a65726f00000000000000000000000000000000000000000000000000006064820152608490fd5b60405162461bcd60e51b815260206004820152602560248201527f5553444320616d6f756e74206d7573742062652067726561746572207468616e60448201527f207a65726f0000000000000000000000000000000000000000000000000000006064820152608490fd5b60046040517f049f8aca000000000000000000000000000000000000000000000000000000008152fd5b346102865761188536613e28565b9060e05152600a60205260e05190604082209152602052602060ff604060e0512054166040519015158152f35b346102865760c036600319011261028657600435602435604435916001600160a01b039283811693848203611bfb5760643560843560a43567ffffffffffffffff811161028657611907903690600401613df7565b94611910613f3c565b6002548710156105f6578660e051526020916006835260ff806008604060e05120015416156109d4578860e0515260068452604060e05120976040519161195683613e81565b888a541683528860018b015416998684019a8b52600281015460408501526003810154606085015260048101546080850152600581015460a0850152600681015460c0850152600781015460e0850152816008820154818116151561010087015260081c161515610120850152600981015493610140810194855261024083601081600a8601541615948515610160860152600b810154610180860152600c8101546101a086015282600d8201541615156101c0860152600e8101546101e0860152600f8101546102008601520154818116151561022085015260081c161515910152611bd1578a60e05152600a865260e0518c6040822091528652604060e051205416611ba7576040518086018c8152606086901b6bffffffffffffffffffffffff191660208201526034810189905260548101889052611ac294611abd92909190611ab081607484015b03601f198101835282613ed6565b5190209351923691614174565b6141cb565b15611b7d577f5063e74643a3fe421d3fdbd3a8ae6c892ddad2083b57d5d609bcc489558350769584826040978a60e05152600a865260e0518c8a8220915286528860e05120600160ff1982541617905582611b69575b505050508280611b38575b50508351928352820152a460e0516001815580f35b611b62917f0000000000000000000000000000000000000000000000000000000000000000614121565b8882611b23565b611b74935116614121565b89848282611b18565b60046040517fb05e92fa000000000000000000000000000000000000000000000000000000008152fd5b60046040517f57a400a1000000000000000000000000000000000000000000000000000000008152fd5b60046040517f28c85e46000000000000000000000000000000000000000000000000000000008152fd5b5f80fd5b346102865760e0518060031936011261028357602060405173b00b8c3ab078eb0f7dec6ce19c1a1da5bf4f8d7e8152f35b346102865760e051806003193601126102835760206001600160a01b0360015416604051908152f35b34610286576020366003190112610286576004356002548110156105f65760e051526006602052604060e0512060405190611c9382613e81565b6001600160a01b038082541683526001820154166020830152600281015460408301526003810154606083015260048101546080830152610e656127106113036005840154948560a0820152600685015460c0820152600785015460e082015260088501549560ff8781809916151561010085015260081c161515610120830152600986015461014083015286600a870154161515610160830152600b86015491610240610180820198848a526010600c8a0154996101a085019a8b5282600d8201541615156101c0860152600e8101546101e0860152600f8101546102008601520154818116151561022085015260081c1615159101526140c4565b346102865760e051806003193601126102835760206040516001600160a01b037f0000000000000000000000000000000000000000000000000000000000000000168152f35b3461028657602080600319360112610286576004356002548110156105f65760e0515260088152604060e051206040519081838254918281520190819260e0515260e05190858220915b86828210611e80578686611e3682880383613ed6565b604051928392818401908285525180915260408401929160e0515b828110611e6057505050500390f35b83516001600160a01b031685528695509381019392810192600101611e51565b83546001600160a01b031685529093019260019283019201611e20565b34610286576020366003190112610286576004356002548110156105f657610e519061435b565b34610286576020366003190112610286576080611edf613de1565b604051611eeb81613eba565b60e051815260e051602082015260e0516040820152606060e0519101526001600160a01b0380911660e051526009602052604060e051209060405190611f3082613eba565b825492838352600181015460208401908152606060038460028501541693604087019485520154940193845260405194855251602085015251166040830152516060820152f35b3461028657611f8536613e28565b906002548110156105f65760e05152600a60205260e05190604082209152602052602060ff604060e0512054166040519015158152f35b346102865760e0518060031936011261028357611fd7613ef8565b5f6001600160a01b0360015473ffffffffffffffffffffffffffffffffffffffff198116600155167f8be0079c531659141344cd1fd0a4f28419497f9722a3daafe3b4186f6b6457e08280a360e05180f35b346102865761203736613e28565b9060e05152600860205260e051604081209081548310156102835760206001600160a01b036120668585613e3e565b9190546040519260031b1c168152f35b3461028657602036600319011261028657600435612092613f3c565b6002548110156105f6578060e0515260066020526001600160a01b039081604060e05120541633036109fe578060e05152600660205260ff6008604060e05120015416156109d4578060e051526006602052604060e051209160ff600d840154161561216857600c830192835461213e577f1ac39badb95a4606f095538a1efb9cf6fc91b7b5a217294a93fbcee654da7a5a918161271061095360056020950154600b840154906140c4565b60046040517fc3ad6d26000000000000000000000000000000000000000000000000000000008152fd5b60046040517f81301dbb000000000000000000000000000000000000000000000000000000008152fd5b34610286576020366003190112610286576004356002548110156105f65760e05152600660205260408060e051208151906121cc82613e81565b6001600160a01b0380825416835260018201541660208301526002810154838301526003810154606083015260048101546080830152600581015460a0830152600681015460c0830152600781015460e083015260088101549160ff8381809516151561010084015260081c16151561012082015261024060098301549384610140840152601081600a8601541615159485610160860152600b810154610180860152600c8101546101a086015282600d8201541615156101c0860152600e8101546101e0860152600f8101546102008601520154818116151561022085015260081c16151591015282519182526020820152f35b346102865760e0518060031936011261028357602060405160128152f35b346102865760e05180600319360112610283576020604051611b588152f35b346102865760203660031901126102865760043560e05152600660205260e0516040902080806001600160a01b03808254169060018301541660c05260028201546003830154600484015460058501546006860154600787015490600888015492600989015494600a8a015460ff1696600b8b015498600c8c01549a600d8d015460ff169c600e01549d600f01549e6010015461010052604051806080525260c0516080516020015260805160400152608051606001526080516080015260805160a0015260805160c0015260805160e0015260ff81161515608051610100015260081c60ff161515608051610120015260805161014001521515608051610160015260805161018001526080516101a0015215156080516101c001526080516101e0015260805161020001526101005160ff16151560805161022001526101005160081c60ff161515608051610240015260805161026090f35b3461028657604036600319011261028657600435612475613dcb565b9060405161248281613e9e565b60e051815260e0516020820152604060e0519101526002548110156105f65760e0515260076020526001600160a01b03604060e0512091165f52602052606060405f206040516124d181613e9e565b815491828252604060ff600260018401549360208601948552015416920191151582526040519283525160208301525115156040820152f35b346102865760e0518060031936011261028357602060405160fa8152f35b34610286576020366003190112610286576004356002548110156105f65761113c602091614474565b346102865760203660031901126102865761256a613f3c565b60025460043510156105f65760043560e051526006806020526001600160a01b03604060e05120541633036109fe5760043560e0515280602052604060e0512090600882019081549160ff8316610f315760038401544211156109d45760ff8360081c16610e1057600160ff1980941617905580830192835492600482015460e051948181115f14612fb757505b60fa81029481860460fa1482151715612fa15750612621906127108096049081612f5157614114565b9460e0519185600b85015480612f2a575b505060e05195600e85015480612eff575b50505060079054920154604051928352602083015260408201528260608201527f7f9f6537e4ad29210d0f7e62118d2eba1e810ccc528264a0b9b47106ad7d53a9608060043592a260025460043510156105f65760043560e0515280602052336001600160a01b03604060e051205416036109fe5760043560e051528060205260ff6008604060e05120015416156109d45760043560e05152602052604060e051209060ff601083015460081c1661184d5782156117e2578015611777576040517f70a082310000000000000000000000000000000000000000000000000000000081523060048201526020816024816001600160a01b037f0000000000000000000000000000000000000000000000000000000000000000165afa80156116a257849160e05191612eca575b5010612e60576001600160a01b036001830154169060e051936001600160a01b037f00000000000000000000000000000000000000000000000000000000000000001683105f14612e305782945b7f00000000000000000000000000000000000000000000000000000000000000006001600160a01b0316841015612e29576001600160a01b037f000000000000000000000000000000000000000000000000000000000000000016905b506001600160a01b0386168414918215612e08576001600160a01b0361285e8561285561284f61284a866140aa565b6145f5565b916145f5565b9060601b6140d7565b169460e051935f14612e015784935b506001600160a01b03831603612dfa57835b6040517f1698ee820000000000000000000000000000000000000000000000000000000081526001600160a01b03898116600483015284166024820152610bb860448201529560208760648173229fd76da9062c1a10eb4193768e192bdea995725afa9687156116a25760e05197612dd9575b506001600160a01b03871615612cd1575b5060206001600160a01b036001890154169160446040518094819363095ea7b360e01b835273b00b8c3ab078eb0f7dec6ce19c1a1da5bf4f8d7e6004840152602483015260e051905af180156116a257612cb2575b506040519063095ea7b360e01b825273b00b8c3ab078eb0f7dec6ce19c1a1da5bf4f8d7e6004830152602482015260208160448160e0516001600160a01b037f0000000000000000000000000000000000000000000000000000000000000000165af180156116a257612c93575b5081605f810204605f14821517156111445782605f810204605f14831517156111445761012c4201421161114457604051928361016081011067ffffffffffffffff61016086011117612c7f576064605f81946001600160a01b0382956101608901604052818c168952166020880152610bb86040880152620d89e7196060880152620d89e860808801528060a08801528360c0880152020460e0850152020461010082015260e05161012082015261012c4201610140820152610140604051917f883164560000000000000000000000000000000000000000000000000000000083526001600160a01b0381511660048401526001600160a01b03602082015116602484015262ffffff6040820151166044840152606081015160020b6064840152608081015160020b608484015260a081015160a484015260c081015160c484015260e081015160e48401526101008101516101048401526001600160a01b036101208201511661012484015201516101448201526080816101648160e05173b00b8c3ab078eb0f7dec6ce19c1a1da5bf4f8d7e5af180156116a25760e051918291612c1e575b506001600160a01b036001819561010061ff0019601083015416176010820155015416848616149460e051955f14612c175782955b5084167f0000000000000000000000000000000000000000000000000000000000000000851603612c1057505b604051938452602084015216907f46450af493d655c2fb6a8c9b747b03c0123fa9107bde1cbb5e8e95265de9349a604060043592a360e0516001815580f35b9050612bd1565b8195612ba4565b9150506080813d608011612c77575b81612c3a60809383613ed6565b810103126102865760208101516fffffffffffffffffffffffffffffffff8116036102865760408101516060909101516001600160a01b03612b6f565b3d9150612c2d565b634e487b7160e01b5f52604160045260245ffd5b612cab9060203d602011611753576117448183613ed6565b50866129c6565b612cca9060203d602011611753576117448183613ed6565b5087612958565b6040517fa16712950000000000000000000000000000000000000000000000000000000081526001600160a01b03808b16600483015285166024820152610bb8604482015296506020878060648101038160e05173229fd76da9062c1a10eb4193768e192bdea995725af19687156116a25760e05197612db8575b506001600160a01b038716803b1561028657604051917ff637731d00000000000000000000000000000000000000000000000000000000835260048301528160248160e05180945af180156116a257156129035767ffffffffffffffff81116113ee5760405288612903565b612dd291975060203d60201161169b5761168c8183613ed6565b9589612d4c565b612df391975060203d60201161169b5761168c8183613ed6565b95896128f2565b809361287f565b819361286d565b6001600160a01b0361285e8561285561284f612e23866140aa565b926145f5565b839061281b565b6001600160a01b037f000000000000000000000000000000000000000000000000000000000000000016946127be565b608460405162461bcd60e51b815260206004820152602560248201527f496e73756666696369656e7420555344432062616c616e636520696e20636f6e60448201527f74726163740000000000000000000000000000000000000000000000000000006064820152fd5b9150506020813d602011612ef7575b81612ee660209383613ed6565b810103126102865783905185612770565b3d9150612ed9565b600793929750612f139060058701546140c4565b049560016010860191825416179055908780612643565b612f3b9192945060058601546140c4565b0491600d84016001828254161790558588612632565b612f9c827f00000000000000000000000000000000000000000000000000000000000000007f0000000000000000000000000000000000000000000000000000000000000000614121565b614114565b634e487b7160e01b90526011600452602460e051fd5b90506125f8565b346102865760e05180600319360112610283576020600254604051908152f35b34610286576020366003190112610286576004356002548110156105f65760e051526006602052613138604060e0512060405161301a81613e81565b6001600160a01b03808354168252600183015416602082015260028201546040820152600382015460608201526004820154608082015260058201549160a0820190838252600681015460c0840152600781015460e084015260088101549360ff8581809716151561010087015260081c161515610120850152600982015461014085015284600a830154161515610160850152600b82015493610240610180820196868852600c8501546101a084015280600d8601541615156101c08401526010600e860154956101e08501968752600f8101546102008601520154818116151561022085015260081c1615159101526131196127109485926140c4565b049482612f9c8561312e8996518651906140c4565b0494859251614114565b93519051918184039384116111445761315483610e6595614114565b90604051968796879260a094919796959260c0850198855260208501526040840152606083015260808201520152565b346102865760c03660031901126102865760243567ffffffffffffffff8111610286576131b5903690600401613df7565b9060443567ffffffffffffffff8111610286576131d6903690600401613df7565b919060643567ffffffffffffffff8111610286576131f8903690600401613df7565b60849391933567ffffffffffffffff81116102865761321b903690600401613df7565b91909460a43567ffffffffffffffff81116102865761323e903690600401613df7565b989060a05261324b613f3c565b60025460043510156105f65760043560e05152600660205260ff6008604060e05120015416156109d45787811480613629575b80613620575b80613617575b156135d35760043560e051526006602052604060e0512094604051956132af87613e81565b6001600160a01b0381541687526001600160a01b036001820154166020880152600281015460408801526003810154606088015260048101546080880152600581015460a0880152600681015460c0880152600781015460e088015260ff600882015481811615156101008a015260081c161515610120880152600981015461014088015260ff601081600a84015416159283156101608b0152600b8101546101808b0152600c8101546101a08b015282600d8201541615156101c08b0152600e8101546101e08b0152600f8101546102008b0152015481811615156102208a015260081c161515610240880152611bd15760e0515b8281106133b65760e0516001815580f35b6133c1818484614220565b35906133ce818c8b614220565b35916001600160a01b0383168303610286578a908d6133fa848b6133f3828d8d614220565b3595614220565b35908410156135bb5760a051948460051b86013595601e19813603018712156102865767ffffffffffffffff8782013511610286578681013560051b3603602088830101136102865761355b9661345991369101803590602001614174565b60043560e05152600a60205260e051846040822091526020528c60ff604060e0512054166135b0576134d791610140866040516134cb81611aa28a8d8b6020850197889290916074949284526bffffffffffffffffffffffff199060601b166020840152603483015260548201520190565b519020920151906141cb565b156135a7576001600160a01b039160043560e05152600a60205260e05184604082209152602052604060e05120600160ff198254161790558c858381613590575b50505080613560575b604051948552602085015216917f5063e74643a3fe421d3fdbd3a8ae6c892ddad2083b57d5d609bcc48955835076604060043592a4613f96565b6133a5565b61358b81837f0000000000000000000000000000000000000000000000000000000000000000614121565b613521565b85602061359f94015116614121565b8c8583613518565b50505050613f96565b505050505050613f96565b634e487b7160e01b60e051526032600452602460e051fd5b606460405162461bcd60e51b815260206004820152601560248201527f4172726179206c656e677468206d69736d6174636800000000000000000000006044820152fd5b5088811461328a565b50838114613284565b5082811461327e565b3461028657604036600319011261028657600435602435613651613f3c565b6002548210156105f6578160e0515260066020526001600160a01b03604060e05120541633036109fe578160e05152600660205260ff6008604060e05120015416156109d4578160e051526006602052604060e0512090600a82019081549160ff831661372c5781156137025760016020938360097fb04b7d6145a7588fdcf339a22877d5965f861c171204fc37688058c5f6c06d3b97015560ff1916179055604051908152a260e0516001815580f35b60046040517f9dd854d3000000000000000000000000000000000000000000000000000000008152fd5b60046040517fc28d98b1000000000000000000000000000000000000000000000000000000008152fd5b346102865760e05180600319360112610283576020604051620d89e88152f35b346102865760e05180600319360112610283576020604051610bb88152f35b34610286576020366003190112610286576004356002548110156105f65760e051526006602052602061113c604060e051206127106111016110f8604051936137dd85613e81565b6001600160a01b038082541686526001820154168786015260028101546040860152600381015460608601526004810154608086015260058101549460a08101958652600682015460c0820152600782015460e082015260088201549060ff8281809416151561010084015260081c161515610120820152600983015461014082015281600a840154161515610160820152610240600b8401549283610180840152600c8501546101a084015280600d8601541615156101c08401526010600e86015495866101e0860152600f8101546102008601520154818116151561022085015260081c161515910152613f75565b346102865760e0366003190112610286576138e7613de1565b6138ef613f3c565b60443560243510801590613d01575b613cd757606435158015613ccd575b613ca3576127108060a43511613c795760c43511613c4f576107d060c43510613c4f57611b5861394160c43560a435613f75565b11613c255760209061396060843530336001600160a01b038516613fa4565b6002549061396d82613f96565b600255613ba360405161397f81613e81565b3381526001600160a01b0383168582015260243560408201526044356060820152606435608082015260843560a082015260e05160c082015260e05160e082015260e05161010082015260e05161012082015260e05161014082015260e05161016082015260a43561018082015260e0516101a082015260e0516101c082015260c4356101e082015260e05161020082015260e05161022082015260e0516102408201528360e05152600685526102406010604060e051206001600160a01b0384511673ffffffffffffffffffffffffffffffffffffffff19908183541617825560018201906001600160a01b038a870151169082541617905560408401516002820155606084015160038201556080840151600482015560a0840151600582015560c0840151600682015560e08401516007820155613af560088201613ad96101008701511515829060ff801983541691151516179055565b610120860151815461ff00191690151560081b61ff0016179055565b6101408401516009820155613b206101608501511515600a83019060ff801983541691151516179055565b610180840151600b8201556101a0840151600c820155613b566101c08501511515600d83019060ff801983541691151516179055565b6101e0840151600e820155610200840151600f8201550191613b8b6102208201511515849060ff801983541691151516179055565b0151815461ff00191690151560081b61ff0016179055565b6001600160a01b03604051911690827f871fd4b9080a369f6680972821bee74d8f2b69aa70373c013b9bd7b655c61842339280613c1460c43560a435608435606435604435602435879260a094919796959260c0850198855260208501526040840152606083015260808201520152565b0390a4600160e05155604051908152f35b60046040517f92ad5c75000000000000000000000000000000000000000000000000000000008152fd5b60046040517f5a434bb5000000000000000000000000000000000000000000000000000000008152fd5b60046040517f77745a0c000000000000000000000000000000000000000000000000000000008152fd5b60046040517f0baf7432000000000000000000000000000000000000000000000000000000008152fd5b506084351561390d565b60046040517f536a71af000000000000000000000000000000000000000000000000000000008152fd5b5042602435106138fe565b346102865760203660031901126102865760806001600160a01b0380613d30613de1565b1660e051526009602052604060e0512090815491600360018201549260028301541691015491604051938452602084015260408301526060820152f35b34611bfb576040366003190112611bfb57606090613d89613dcb565b6004355f5260076020526001600160a01b0360405f2091165f5260205260405f2080549060ff6002600183015492015416918352602083015215156040820152f35b602435906001600160a01b0382168203611bfb57565b600435906001600160a01b0382168203611bfb57565b9181601f84011215611bfb5782359167ffffffffffffffff8311611bfb576020808501948460051b010111611bfb57565b6040906003190112611bfb576004359060243590565b8054821015613e53575f5260205f2001905f90565b634e487b7160e01b5f52603260045260245ffd5b34611bfb575f366003190112611bfb5760206040515f8152f35b610260810190811067ffffffffffffffff821117612c7f57604052565b6060810190811067ffffffffffffffff821117612c7f57604052565b6080810190811067ffffffffffffffff821117612c7f57604052565b90601f8019910116810190811067ffffffffffffffff821117612c7f57604052565b6001600160a01b03600154163303613f0c57565b60246040517f118cdaa7000000000000000000000000000000000000000000000000000000008152336004820152fd5b60025f5414613f4b5760025f55565b60046040517f3ee5aeb5000000000000000000000000000000000000000000000000000000008152fd5b91908201809211613f8257565b634e487b7160e01b5f52601160045260245ffd5b5f198114613f825760010190565b9290604051927f23b872dd0000000000000000000000000000000000000000000000000000000060208501526001600160a01b03809216602485015216604483015260648201526064815260a081019181831067ffffffffffffffff841117612c7f5761401392604052614015565b565b905f602091828151910182855af115614087575f513d61407e57506001600160a01b0381163b155b6140445750565b6024906001600160a01b03604051917f5274afe7000000000000000000000000000000000000000000000000000000008352166004820152fd5b6001141561403d565b6040513d5f823e3d90fd5b90816020910312611bfb57518015158103611bfb5790565b9064e8d4a5100091828102928184041490151715613f8257565b81810292918115918404141715613f8257565b81156140e1570490565b634e487b7160e01b5f52601260045260245ffd5b90816020910312611bfb57516001600160a01b0381168103611bfb5790565b91908203918211613f8257565b614013926001600160a01b03604051937fa9059cbb00000000000000000000000000000000000000000000000000000000602086015216602484015260448301526044825261416f82613eba565b614015565b90929167ffffffffffffffff8411612c7f578360051b604051926020809461419e82850182613ed6565b8097815201918101928311611bfb57905b8282106141bc5750505050565b813581529083019083016141af565b9091905f915b8151831015614219576020808460051b84010151915f8382105f1461420857505f525261420260405f205b92613f96565b916141d1565b9060409261420294835252206141fc565b9150501490565b9190811015613e535760051b0190565b905f91825260066020526040822060405161424a81613e81565b6001600160a01b038083541682526001830154166020820152600282015460408201526003820154606082015260048201546080820152600582015460a0820152600682015460c0820152600782015460e082015260088201549060ff90818084161593841561010084015260081c161515610120820152600984015461014082015281600a850154161515610160820152610240600b85015492836101808401526010600c87015496876101a086015282600d8201541615156101c0860152600e8101546101e0860152600f8101546102008601520154818116151561022085015260081c161515910152156143545761434e576143495760019190565b600290565b50600190565b5050600390565b905f91825260066020526040822060405161437581613e81565b6001600160a01b038083541682526001830154166020820152600282015460408201526003820154606082015260048201546080820152600582015460a0820152600682015460c0820152600782015460e082015260088201549060ff90818084161593841561010084015260081c161515610120820152600984015461014082015281600a850154161515610160820152600b840154610180820152600c8401546101a082015281600d8501541615156101c0820152610240600e85015492836101e08401526010600f87015496876102008601520154818116151561022085015260081c161515910152156143545761434e576143495760019190565b5f52600660205260405f206040519061448c82613e81565b6001600160a01b03808254168352600182015416602083015260028101546040830152600381015460608301526004810154806080840152600582015460a08401526006820154928360c08201526102406007840154938460e0840152601060088201549160ff8381809516151561010088015260081c161515610120860152600981015461014086015282600a820154161515610160860152600b810154610180860152600c8101546101a086015282600d8201541615156101c0860152600e8101546101e0860152600f8101546102008601520154818116151561022085015260081c16151591015281156145995761458f928181111561459257506140d7565b90565b90506140d7565b5050505f90565b6127108082116145eb5782116145e2576107d082106145d957611b58916145c691613f75565b116145d2576001905f90565b5f90600490565b50505f90600390565b50505f90600290565b5050505f90600190565b90811561463c578160019080821c828101809111613f825791905b84831061461c57505050565b909193506146338461462e81846140d7565b613f75565b821c9190614610565b5f915056fea2646970667358221220a0da3689428b1b802e22e7e80993fa61f509ca7d8cf4fd52a37eb5b592b3e4e764736f6c63430008140033","linkReferences":{}},"methodIdentifiers":{"DEFAULT_V3_FEE_TIER()":"16f6d148","DEFAULT_V3_TICK_LOWER()":"e3c91b42","DEFAULT_V3_TICK_UPPER()":"186e68b2","MAX_COMBINED_PERCENTAGE()":"47fdc5d2","MIN_LIQUIDITY_PERCENTAGE()":"c917a13b","PLATFORM_FEE()":"34fbc9a1","TOKEN_DECIMALS()":"5b7f415c","UNISWAP_V2_FACTORY()":"99d8fae3","UNISWAP_V2_ROUTER()":"a82ed9ec","UNISWAP_V3_FACTORY()":"f73e5aab","UNISWAP_V3_POSITION_MANAGER()":"94cbab9d","USDC()":"89a30271","USDC_DECIMALS()":"c1419def","batchMerkleClaim(uint256,uint256[],address[],uint256[],uint256[],bytes32[][])":"1b7d20bd","canClaimDevTokens(uint256)":"bb106e9c","canClaimLiquidityTokens(uint256)":"83889d5c","cancelGiveaway(uint256)":"cb3bd80e","claimAndDeployLiquidity(uint256,uint256,uint256)":"a548e549","claimDevTokens(uint256)":"6f8cb96f","claimLiquidityTokens(uint256)":"e5d2418a","createGiveaway(address,uint256,uint256,uint256,uint256,uint256,uint256)":"12b861f9","deposit(uint256,uint256)":"e2bbb158","finalizeGiveaway(uint256)":"20a37e15","getAllocationBreakdown(uint256)":"1c905f08","getAverageAllocation(uint256)":"2ec3a60c","getConfigId(bytes32,bytes32,bytes)":"ada1b319","getDevTokenInfo(uint256)":"8aa7e67a","getGiveaway(uint256)":"f227d93e","getGiveawayParticipants(uint256)":"83e3839d","getLiquidityTokenInfo(uint256)":"b38010b8","getMerkleInfo(uint256)":"5d308fb8","getParticipant(uint256,address)":"35f3ad7a","getTokenPrice(uint256)":"c457fb37","getTokensForParticipants(uint256)":"16667728","getVerification(address)":"7fc9592d","giveawayCounter()":"1d5e9609","giveawayParticipants(uint256,uint256)":"6f9e2fc5","giveaways(uint256)":"3e06df3d","isMerkleClaimed(uint256,uint256)":"7a85abd7","merkleClaim(uint256,uint256,address,uint256,uint256,bytes32[])":"957cf0c5","merkleClaimed(uint256,uint256)":"9d72c2d4","owner()":"8da5cb5b","participants(uint256,address)":"02e060c6","platformFeeRecipient()":"eb13554f","registerPassportVerification(uint256,uint256)":"f1fdc50c","renounceOwnership()":"715018a6","setMerkleRoot(uint256,bytes32)":"18712c21","transferOwnership(address)":"f2fde38b","validateAllocationParameters(uint256,uint256)":"d7ba5d2f","verifications(address)":"080c98da","walletVerified(address)":"cabfb693"},"id":38}