{"abi":[{"type":"constructor","inputs":[{"name":"tokenFactory_","type":"address","internalType":"address"},{"name":"giveaway_","type":"address","internalType":"address"},{"name":"platformFeeRecipient_","type":"address","internalType":"address"}],"stateMutability":"nonpayable"},{"type":"function","name":"MAX_COMBINED_PERCENTAGE","inputs":[],"outputs":[{"name":"","type":"uint256","internalType":"uint256"}],"stateMutability":"view"},{"type":"function","name":"MIN_LIQUIDITY_PERCENTAGE","inputs":[],"outputs":[{"name":"","type":"uint256","internalType":"uint256"}],"stateMutability":"view"},{"type":"function","name":"creatorProjects","inputs":[{"name":"","type":"address","internalType":"address"},{"name":"","type":"uint256","internalType":"uint256"}],"outputs":[{"name":"","type":"uint256","internalType":"uint256"}],"stateMutability":"view"},{"type":"function","name":"getCompleteProjectInfo","inputs":[{"name":"launchId","type":"uint256","internalType":"uint256"}],"outputs":[{"name":"launch","type":"tuple","internalType":"struct LaunchPlatform.ProjectLaunch","components":[{"name":"creator","type":"address","internalType":"address"},{"name":"tokenAddress","type":"address","internalType":"address"},{"name":"giveawayId","type":"uint256","internalType":"uint256"},{"name":"launchTimestamp","type":"uint256","internalType":"uint256"},{"name":"name","type":"string","internalType":"string"},{"name":"symbol","type":"string","internalType":"string"}]},{"name":"tokenAddress","type":"address","internalType":"address"},{"name":"giveawayData","type":"tuple","internalType":"struct Giveaway.GiveawayData","components":[{"name":"projectOwner","type":"address","internalType":"address"},{"name":"tokenAddress","type":"address","internalType":"address"},{"name":"startTime","type":"uint256","internalType":"uint256"},{"name":"endTime","type":"uint256","internalType":"uint256"},{"name":"maxAllocation","type":"uint256","internalType":"uint256"},{"name":"totalTokensForSale","type":"uint256","internalType":"uint256"},{"name":"totalDeposited","type":"uint256","internalType":"uint256"},{"name":"participantCount","type":"uint256","internalType":"uint256"},{"name":"finalized","type":"bool","internalType":"bool"},{"name":"cancelled","type":"bool","internalType":"bool"},{"name":"merkleRoot","type":"bytes32","internalType":"bytes32"},{"name":"merkleEnabled","type":"bool","internalType":"bool"},{"name":"devPercentage","type":"uint256","internalType":"uint256"},{"name":"devTokensClaimed","type":"uint256","internalType":"uint256"},{"name":"devTokensAllocated","type":"bool","internalType":"bool"},{"name":"liquidityPercentage","type":"uint256","internalType":"uint256"},{"name":"liquidityTokensClaimed","type":"uint256","internalType":"uint256"},{"name":"liquidityTokensAllocated","type":"bool","internalType":"bool"},{"name":"liquidityDeployed","type":"bool","internalType":"bool"}]}],"stateMutability":"view"},{"type":"function","name":"getCreatorProjects","inputs":[{"name":"creator","type":"address","internalType":"address"}],"outputs":[{"name":"projectIds","type":"uint256[]","internalType":"uint256[]"}],"stateMutability":"view"},{"type":"function","name":"getLaunchInfo","inputs":[{"name":"launchId","type":"uint256","internalType":"uint256"}],"outputs":[{"name":"launch","type":"tuple","internalType":"struct LaunchPlatform.ProjectLaunch","components":[{"name":"creator","type":"address","internalType":"address"},{"name":"tokenAddress","type":"address","internalType":"address"},{"name":"giveawayId","type":"uint256","internalType":"uint256"},{"name":"launchTimestamp","type":"uint256","internalType":"uint256"},{"name":"name","type":"string","internalType":"string"},{"name":"symbol","type":"string","internalType":"string"}]}],"stateMutability":"view"},{"type":"function","name":"giveaway","inputs":[],"outputs":[{"name":"","type":"address","internalType":"contract Giveaway"}],"stateMutability":"view"},{"type":"function","name":"launchProject","inputs":[{"name":"tokenParams","type":"tuple","internalType":"struct LaunchPlatform.TokenParams","components":[{"name":"name","type":"string","internalType":"string"},{"name":"symbol","type":"string","internalType":"string"},{"name":"initialSupply","type":"uint256","internalType":"uint256"},{"name":"maxSupply","type":"uint256","internalType":"uint256"},{"name":"description","type":"string","internalType":"string"}]},{"name":"giveawayParams","type":"tuple","internalType":"struct LaunchPlatform.GiveawayParams","components":[{"name":"startTime","type":"uint256","internalType":"uint256"},{"name":"endTime","type":"uint256","internalType":"uint256"},{"name":"maxAllocation","type":"uint256","internalType":"uint256"},{"name":"tokensForGiveaway","type":"uint256","internalType":"uint256"},{"name":"devPercentage","type":"uint256","internalType":"uint256"},{"name":"liquidityPercentage","type":"uint256","internalType":"uint256"},{"name":"enableTradingImmediately","type":"bool","internalType":"bool"}]}],"outputs":[{"name":"launchId","type":"uint256","internalType":"uint256"},{"name":"tokenAddress","type":"address","internalType":"address"},{"name":"giveawayId","type":"uint256","internalType":"uint256"}],"stateMutability":"payable"},{"type":"function","name":"owner","inputs":[],"outputs":[{"name":"","type":"address","internalType":"address"}],"stateMutability":"view"},{"type":"function","name":"pauseLaunches","inputs":[],"outputs":[],"stateMutability":"nonpayable"},{"type":"function","name":"paused","inputs":[],"outputs":[{"name":"","type":"bool","internalType":"bool"}],"stateMutability":"view"},{"type":"function","name":"platformFeeRecipient","inputs":[],"outputs":[{"name":"","type":"address","internalType":"address"}],"stateMutability":"view"},{"type":"function","name":"projectLaunches","inputs":[{"name":"","type":"uint256","internalType":"uint256"}],"outputs":[{"name":"creator","type":"address","internalType":"address"},{"name":"tokenAddress","type":"address","internalType":"address"},{"name":"giveawayId","type":"uint256","internalType":"uint256"},{"name":"launchTimestamp","type":"uint256","internalType":"uint256"},{"name":"name","type":"string","internalType":"string"},{"name":"symbol","type":"string","internalType":"string"}],"stateMutability":"view"},{"type":"function","name":"renounceOwnership","inputs":[],"outputs":[],"stateMutability":"nonpayable"},{"type":"function","name":"tokenFactory","inputs":[],"outputs":[{"name":"","type":"address","internalType":"contract TokenFactory"}],"stateMutability":"view"},{"type":"function","name":"totalProjectsLaunched","inputs":[],"outputs":[{"name":"","type":"uint256","internalType":"uint256"}],"stateMutability":"view"},{"type":"function","name":"transferOwnership","inputs":[{"name":"newOwner","type":"address","internalType":"address"}],"outputs":[],"stateMutability":"nonpayable"},{"type":"function","name":"unpauseLaunches","inputs":[],"outputs":[],"stateMutability":"nonpayable"},{"type":"event","name":"DevAllocationTransferred","inputs":[{"name":"launchId","type":"uint256","indexed":true,"internalType":"uint256"},{"name":"creator","type":"address","indexed":true,"internalType":"address"},{"name":"tokenAddress","type":"address","indexed":true,"internalType":"address"},{"name":"devAllocation","type":"uint256","indexed":false,"internalType":"uint256"}],"anonymous":false},{"type":"event","name":"OwnershipTransferred","inputs":[{"name":"previousOwner","type":"address","indexed":true,"internalType":"address"},{"name":"newOwner","type":"address","indexed":true,"internalType":"address"}],"anonymous":false},{"type":"event","name":"Paused","inputs":[{"name":"account","type":"address","indexed":false,"internalType":"address"}],"anonymous":false},{"type":"event","name":"ProjectLaunched","inputs":[{"name":"launchId","type":"uint256","indexed":true,"internalType":"uint256"},{"name":"creator","type":"address","indexed":true,"internalType":"address"},{"name":"tokenAddress","type":"address","indexed":true,"internalType":"address"},{"name":"giveawayId","type":"uint256","indexed":false,"internalType":"uint256"},{"name":"name","type":"string","indexed":false,"internalType":"string"},{"name":"symbol","type":"string","indexed":false,"internalType":"string"},{"name":"devPercentage","type":"uint256","indexed":false,"internalType":"uint256"},{"name":"liquidityPercentage","type":"uint256","indexed":false,"internalType":"uint256"},{"name":"timestamp","type":"uint256","indexed":false,"internalType":"uint256"}],"anonymous":false},{"type":"event","name":"Unpaused","inputs":[{"name":"account","type":"address","indexed":false,"internalType":"address"}],"anonymous":false},{"type":"error","name":"EnforcedPause","inputs":[]},{"type":"error","name":"ExpectedPause","inputs":[]},{"type":"error","name":"InsufficientAllowance","inputs":[]},{"type":"error","name":"InsufficientFee","inputs":[]},{"type":"error","name":"InvalidParameters","inputs":[]},{"type":"error","name":"OwnableInvalidOwner","inputs":[{"name":"owner","type":"address","internalType":"address"}]},{"type":"error","name":"OwnableUnauthorizedAccount","inputs":[{"name":"account","type":"address","internalType":"address"}]},{"type":"error","name":"ProjectLaunchFailed","inputs":[]},{"type":"error","name":"ReentrancyGuardReentrantCall","inputs":[]}],"bytecode":{"object":"0x60e0346200013057601f62001a3a38819003918201601f19168301916001600160401b03831184841017620001345780849260609460405283398101031262000130576200004d8162000148565b620000696040620000616020850162000148565b930162000148565b90331562000118575f8054336001600160a01b0319821681178355604051956001600160a01b0394909385939192918416907f8be0079c531659141344cd1fd0a4f28419497f9722a3daafe3b4186f6b6457e09080a360018055166080521660a05260c0526118dc90816200015e8239608051818181610290015281816107300152610802015260a05181818160ff015281816108690152818161093501526112d0015260c051816101f10152f35b604051631e4fbdf760e01b81525f6004820152602490fd5b5f80fd5b634e487b7160e01b5f52604160045260245ffd5b51906001600160a01b0382168203620001305756fe60806040526004361015610011575f80fd5b5f803560e01c8063018af9aa1461117b57806302029a39146110e05780630439e24d14611032578063329d38611461101457806347fdc5d214610ff75780634e580634146104f15780635af026771461046e5780635c975abb1461044b578063715018a6146103e55780638da5cb5b146103bf578063a0a3fbd714610369578063c830b009146102d1578063c917a13b146102b4578063e77772fe14610270578063e79b502e14610215578063eb13554f146101d1578063f2fde38b146101265763f9850b72146100e0575f80fd5b3461012357806003193601126101235760206040516001600160a01b037f0000000000000000000000000000000000000000000000000000000000000000168152f35b80fd5b5034610123576020366003190112610123576101406115fb565b6101486117dc565b6001600160a01b038091169081156101a0575f548273ffffffffffffffffffffffffffffffffffffffff198216175f55167f8be0079c531659141344cd1fd0a4f28419497f9722a3daafe3b4186f6b6457e05f80a380f35b602483604051907f1e4fbdf70000000000000000000000000000000000000000000000000000000082526004820152fd5b503461012357806003193601126101235760206040516001600160a01b037f0000000000000000000000000000000000000000000000000000000000000000168152f35b503461012357806003193601126101235761022e6117dc565b610236611840565b600160ff1960025416176002557f62e78cea01bee320cd4e420270b5ea74000d11b0c9f74754ebdbfc544b05a2586020604051338152a180f35b503461012357806003193601126101235760206040516001600160a01b037f0000000000000000000000000000000000000000000000000000000000000000168152f35b503461012357806003193601126101235760206040516107d08152f35b50346101235760203660031901126101235760409060043581526004602052206001600160a01b03610365818354169160018401541692610357600282015491600381015461032e60056103276004850161173b565b930161173b565b93604051978897885260208801526040870152606086015260c0608086015260c085019061155d565b9083820360a085015261155d565b0390f35b5034610123576040366003190112610123576103836115fb565b6001600160a01b03168152600560205260408120805460243592908310156101235760206103b184846116da565b90546040519160031b1c8152f35b50346101235780600319360112610123576001600160a01b036020915416604051908152f35b50346101235780600319360112610123576103fe6117dc565b5f6001600160a01b03815473ffffffffffffffffffffffffffffffffffffffff1981168355167f8be0079c531659141344cd1fd0a4f28419497f9722a3daafe3b4186f6b6457e08280a380f35b5034610123578060031936011261012357602060ff600254166040519015158152f35b50346101235780600319360112610123576104876117dc565b60025460ff8116156104c75760ff19166002557f5db9ee0a495bf2e6ff9c91a7834c1ba4fdd244a5e8aa4e537bd38aeae4b073aa6020604051338152a180f35b60046040517f8dfc202b000000000000000000000000000000000000000000000000000000008152fd5b506101003660031901126101235760043567ffffffffffffffff8111610f975760a06003198236030112610f97576040519060a0820182811067ffffffffffffffff821117610ca457604052806004013567ffffffffffffffff8111610e99576105619060043691840101611684565b8252602481013567ffffffffffffffff8111610e99576105879060043691840101611684565b6020830152604481013560408301526064810135606083015260848101359067ffffffffffffffff8211610e995760046105c49236920101611684565b608082015260e0366023190112610f97576040519160e0830183811067ffffffffffffffff821117610c8557604052602435835260443560208401526064356040840152608435606084015260a435608084015260c43560a084015260e4358015158103610f975760c0840152600260015414610fcd576002600155610648611840565b81515115610fa35760208201515115610fa357604082015115610fa357606082015115610fa357606083015115610fa3578251421015610fa357602083015183511015610fa357604083015115610fa3576040820151606083015110610fa3576060830151604083015110610fa357612710608084015111610fa35761271060a084015111610fa3576107d060a084015110610fa357608083015160a08401518101809111610e5957611b5810610fa357604051917fdce0b4e40000000000000000000000000000000000000000000000000000000083526020836004816001600160a01b037f0000000000000000000000000000000000000000000000000000000000000000165afa928315610c99578293610f6b575b50823410610f415780519360206107c781840151966107f5604086015160608701516080880151906107d96040519c8d9788977f2d2d671200000000000000000000000000000000000000000000000000000000895260a060048a015260a489019061155d565b8781036003190160248901529061155d565b926044860152606485015260031984830301608485015261155d565b0381876001600160a01b037f0000000000000000000000000000000000000000000000000000000000000000165af1948515610f36578395610ef6575b506060810151604051907f095ea7b30000000000000000000000000000000000000000000000000000000082526001600160a01b037f00000000000000000000000000000000000000000000000000000000000000001660048301526024820152602081604481876001600160a01b038b165af18015610eeb57610eb2575b5080519260208201516040830151606084015160808501519160a086015193604051987f12b861f9000000000000000000000000000000000000000000000000000000008a526001600160a01b038c1660048b015260248a015260448901526064880152608487015260a486015260c485015260208460e481846001600160a01b037f0000000000000000000000000000000000000000000000000000000000000000165af1938415610ea5578194610e6d575b50600354945f198614610e59576001860160035583516020850151906040519061098e82611646565b33825260208201926001600160a01b038b1684526040830189815260608401914283526080850193845260a08501528a8752600460205260408720946001600160a01b0385511673ffffffffffffffffffffffffffffffffffffffff1990818854161787556001600160a01b0360018801925116908254161790555160028501555160038401555180519067ffffffffffffffff8211610e4557610a356004850154611703565b601f8111610e01575b50602090601f8311600114610d925760a0939291879183610d87575b50508160011b915f199060031b1c19161760048401555b015180519067ffffffffffffffff8211610d7357610a926005840154611703565b601f8111610d2f575b50602090601f8311600114610cc35760059291869183610cb8575b50508160011b915f199060031b1c1916179101555b33825260056020526040822080549068010000000000000000821015610ca45790610afb916001820181556116da565b81549060031b9088821b915f19901b191617905560c0830151610c12575b803411610bc1575b5050938160609560206001600160a01b039451920151610b6e60a0608084015193015191610b606040519589875260c0602088015260c087019061155d565b90858203604087015261155d565b918884015260808301524260a0830152857f2f9d2b5655aa99e8587fb8a681225ecc8e035772387a334081d8caeef74ec9c1858516938033940390a4600180556040519384521660208301526040820152f35b80340390348211610bfe5782808093819382903414610bf5575b3390f115610be95780610b21565b604051903d90823e3d90fd5b506108fc610bdb565b602483634e487b7160e01b81526011600452fd5b906001600160a01b0387163b15610123576040517f8a8c523c0000000000000000000000000000000000000000000000000000000081528181600481836001600160a01b038d165af18015610c9957610c6d575b5090610b19565b67ffffffffffffffff8111610c85576040525f610c66565b602482634e487b7160e01b81526041600452fd5b6040513d84823e3d90fd5b602484634e487b7160e01b81526041600452fd5b015190505f80610ab6565b906005840186526020862091865b601f1985168110610d175750918391600193600595601f19811610610cff575b505050811b01910155610acb565b01515f1960f88460031b161c191690555f8080610cf1565b91926020600181928685015181550194019201610cd1565b60058401865260208620601f840160051c810160208510610d6c575b601f830160051c82018110610d61575050610a9b565b878155600101610d4b565b5080610d4b565b602485634e487b7160e01b81526041600452fd5b015190505f80610a5a565b906004850187526020872091875b601f1985168110610de9575091839160019360a09695601f19811610610dd1575b505050811b016004840155610a71565b01515f1960f88460031b161c191690555f8080610dc1565b91926020600181928685015181550194019201610da0565b60048501875260208720601f840160051c810160208510610e3e575b601f830160051c82018110610e33575050610a3e565b888155600101610e1d565b5080610e1d565b602486634e487b7160e01b81526041600452fd5b602482634e487b7160e01b81526011600452fd5b9093506020813d602011610e9d575b81610e8960209383611662565b81010312610e995751925f610965565b8380fd5b3d9150610e7c565b50604051903d90823e3d90fd5b6020813d602011610ee3575b81610ecb60209383611662565b81010312610e9957610edc90611833565b505f6108b1565b3d9150610ebe565b6040513d86823e3d90fd5b9094506020813d602011610f2e575b81610f1260209383611662565b81010312610f2a57610f239061181f565b935f610832565b8280fd5b3d9150610f05565b6040513d85823e3d90fd5b60046040517f025dbdd4000000000000000000000000000000000000000000000000000000008152fd5b9092506020813d602011610f9b575b81610f8760209383611662565b81010312610f975751915f610760565b5080fd5b3d9150610f7a565b60046040517fe5239090000000000000000000000000000000000000000000000000000000008152fd5b60046040517f3ee5aeb5000000000000000000000000000000000000000000000000000000008152fd5b50346101235780600319360112610123576020604051611b588152f35b50346101235780600319360112610123576020600354604051908152f35b503461012357602080600319360112610f97576001600160a01b036110556115fb565b168252600581526040822060405192838383549182815201908193835284832090835b8181106110cc575050508461108e910385611662565b60405193838594850191818652518092526040850193925b8281106110b557505050500390f35b8351855286955093810193928101926001016110a6565b825484529286019260019283019201611078565b503461012357602036600319011261012357604061036591611100611876565b50600435815260046020522061116260056040519261111e84611646565b6001600160a01b03808254168552600182015416602085015260028101546040850152600381015460608501526111576004820161173b565b60808501520161173b565b60a082015260405191829160208352602083019061159b565b503461012357602036600319011261012357611195611876565b50806102406040516111a681611615565b8281528260208201528260408201528260608201528260808201528260a08201528260c08201528260e08201528261010082015282610120820152826101408201528261016082015282610180820152826101a0820152826101c0820152826101e082015282610200820152826102208201520152600435815260046020526040812061127b60056040519261123b84611646565b6001600160a01b0381541684526001600160a01b03600182015416602085015260028101546040850152600381015460608501526111576004820161173b565b60a08201526001600160a01b036020820151166040820151604051907ff227d93e0000000000000000000000000000000000000000000000000000000082526004820152610260816024816001600160a01b037f0000000000000000000000000000000000000000000000000000000000000000165afa938415610be9578094611412575b505061024061131d936040519485946102a080875286019061159b565b9260208501526001600160a01b0381511660408501526001600160a01b03602082015116606085015260408101516080850152606081015160a0850152608081015160c085015260a081015160e085015260c081015161010085015260e08101516101208501526101008101511515610140850152610120810151151561016085015261014081015161018085015261016081015115156101a08501526101808101516101c08501526101a08101516101e08501526101c081015115156102008501526101e0810151610220850152610200810151828501526102208101511515610260850152015115156102808301520390f35b909350610260843d61026011611555575b816114316102609383611662565b81010312610123575061024061131d9361154b826040519261145284611615565b61145b8161181f565b84526114696020820161181f565b602085015260408101516040850152606081015160608501526080810151608085015260a081015160a085015260c081015160c085015260e081015160e08501526114b76101008201611833565b6101008501526114ca6101208201611833565b6101208501526101408101516101408501526114e96101608201611833565b6101608501526101808101516101808501526101a08101516101a08501526115146101c08201611833565b6101c08501526101e08101516101e085015261020081015161020085015261153f6102208201611833565b61022085015201611833565b8282015293611300565b3d9150611423565b91908251928382525f5b848110611587575050825f602080949584010152601f8019910116010190565b602081830181015184830182015201611567565b6115f8916001600160a01b038083511682526020830151166020820152604082015160408201526060820151606082015260a06115e7608084015160c0608085015260c084019061155d565b9201519060a081840391015261155d565b90565b600435906001600160a01b038216820361161157565b5f80fd5b610260810190811067ffffffffffffffff82111761163257604052565b634e487b7160e01b5f52604160045260245ffd5b60c0810190811067ffffffffffffffff82111761163257604052565b90601f8019910116810190811067ffffffffffffffff82111761163257604052565b81601f820112156116115780359067ffffffffffffffff821161163257604051926116b9601f8401601f191660200185611662565b8284526020838301011161161157815f926020809301838601378301015290565b80548210156116ef575f5260205f2001905f90565b634e487b7160e01b5f52603260045260245ffd5b90600182811c92168015611731575b602083101461171d57565b634e487b7160e01b5f52602260045260245ffd5b91607f1691611712565b9060405191825f82549261174e84611703565b9081845260019485811690815f146117b95750600114611779575b505061177792500383611662565b565b909391505f52602090815f20935f915b8183106117a157505061177793508201015f80611769565b85548884018501529485019487945091830191611789565b91505061177794506020925060ff191682840152151560051b8201015f80611769565b6001600160a01b035f541633036117ef57565b60246040517f118cdaa7000000000000000000000000000000000000000000000000000000008152336004820152fd5b51906001600160a01b038216820361161157565b5190811515820361161157565b60ff6002541661184c57565b60046040517fd93c0665000000000000000000000000000000000000000000000000000000008152fd5b6040519061188382611646565b606060a0835f81525f60208201525f60408201525f83820152826080820152015256fea2646970667358221220f31e2c448581aceabb2abeea94b01a699bc09643e3e919d014b53a6dc9467c0864736f6c63430008140033","linkReferences":{}},"methodIdentifiers":{"MAX_COMBINED_PERCENTAGE()":"47fdc5d2","MIN_LIQUIDITY_PERCENTAGE()":"c917a13b","creatorProjects(address,uint256)":"a0a3fbd7","getCompleteProjectInfo(uint256)":"018af9aa","getCreatorProjects(address)":"0439e24d","getLaunchInfo(uint256)":"02029a39","giveaway()":"f9850b72","launchProject((string,string,uint256,uint256,string),(uint256,uint256,uint256,uint256,uint256,uint256,bool))":"4e580634","owner()":"8da5cb5b","pauseLaunches()":"e79b502e","paused()":"5c975abb","platformFeeRecipient()":"eb13554f","projectLaunches(uint256)":"c830b009","renounceOwnership()":"715018a6","tokenFactory()":"e77772fe","totalProjectsLaunched()":"329d3861","transferOwnership(address)":"f2fde38b","unpauseLaunches()":"5af02677"},"id":39}